:020000040800F2
:10000000781A002015030008CB090008C70900086A
:10001000C9090008A1070008C9160008000000006F
:100020000000000000000000000000005D02000869
:10003000A307000800000000B1020008D91400085E
:100040002F0300082F0300082F0300082F030008C8
:100050002F0300082F0300082F0300082F030008B8
:100060002F0300082F0300082F0300082F030008A8
:100070002F0300082F0300082F0300082F03000898
:100080002F0300082F0300082F0300082F03000888
:100090002F0300082F0300082F0300082F03000878
:1000A0002F0300082F0300082F0300082F03000868
:1000B0002F0300082F0300082F0300082F03000858
:1000C0002F0300082F0300082F0300082F03000848
:1000D0002F0300082F0300082F0300082F03000838
:1000E0002F0300082F0300082F0300082F03000828
:1000F0002F0300082F0300082F0300082F03000818
:100100002F0300082F0300082F0300082F03000807
:100110002F0300082F0300082F0300082F030008F7
:100120002F0300082F0300082F0300082F030008E7
:100130002F0300082F0300082F0300082F030008D7
:100140002F0300082F0300082F0300082F030008C7
:100150002F0300082F0300082F0300082F030008B7
:100160002F0300082F0300082F0300082F030008A7
:100170002F0300082F0300082F0300082F03000897
:100180002F0300082F0300082F0300082F03000887
:100190002F0300082F0300082F0300082F03000877
:1001A0002F0300082F0300082F03000800F002F8B7
:1001B00000F044F80AA090E8000C82448344AAF1BD
:1001C0000107DA4501D100F039F8AFF2090EBAE8BB
:1001D0000F0013F0010F18BFFB1A43F0010318477B
:1001E000B4390000D4390000103A24BF78C878C16F
:1001F000FAD8520724BF30C830C144BF04680C602D
:10020000704700000023002400250026103A28BF74
:1002100078C1FBD8520728BF30C148BF0B60704778
:10022000642900F00381732900F0F08100207047F9
:100230001FB503F08DFC1FBD10B510BD00F04AFACC
:100240001146FFF7F5FF01F063FF00F068FA03B411
:10025000FFF7F2FF03BC01F038FA00002A4B1968DF
:100260000868B0E8F04F80F30988BFF36F8F4FF054
:10027000000080F311887047000000000648006805
:10028000006880F3088862B661B6BFF34F8FBFF392
:100290006F8F00DF00BF00BF08ED00E0DFF80C004B
:1002A000016841F470010160704700BF88ED00E013
:1002B000EFF30980BFF36F8F134B1A681EF0100F16
:1002C00008BF20ED108A20E9F04F106008B44FF00D
:1002D000500080F31188BFF34F8FBFF36F8F02F090
:1002E00011FF4FF0000080F3118808BC19680868FE
:1002F000B0E8F04F1EF0100F08BFB0EC108A80F38A
:100300000988BFF36F8F704750000020EFF305801E
:10031000704700000948804709480047FEE7FEE7AC
:10032000FEE7FEE7FEE7FEE7FEE7FEE7FEE7FEE7A5
:1003300004480549054A064B70470000ED140008C3
:10034000AD01000878140020781A002078160020EB
:1003500078160020704700000FB4044910B503AAB6
:10036000029800F057F910BC5DF814FB3C00002027
:100370002DE9F0410E460446002020622046E16847
:10038000884730B3252805D0D4E901219047206A59
:10039000401CF2E7E168204600278847050018D096
:1003A000A5F14100192802D820354FF400673246E4
:1003B000294620462760FFF733FF40B1012804D0CB
:1003C000F61D26F007060836D8E7361DD6E728467C
:1003D000DAE7206ABDE8F08170B50C460546012ACF
:1003E00005D02878800600D5EA69002302E00123C1
:1003F00005E05B1C934202D2E05C0028F9D1A869B9
:10040000E618C01AA861286A184428622846AFF383
:10041000008004E0D5E9012114F8010B9047B442B3
:10042000F8D32846AFF3008070BD00002DE9F041FD
:100430000646002410687529314616A510D0AFF382
:100440000080002802DA404213A507E031688A07DD
:1004500001D512A502E0490704D511A5012401E048
:10046000AFF3008000210A2206F1240709E0B0FB67
:10047000F2FCB0FBF2F302FB1C003030785418465B
:10048000491C0028F3D123462A463046BDE8F041F6
:1004900000F051B8000000002D0000002B0000000B
:1004A00020000000032A40F2308010F0030C00F01E
:1004B000158011F8013BBCF1020F624498BF11F89E
:1004C00001CB00F8013B38BF11F8013BA2F1040257
:1004D00098BF00F801CB38BF00F8013B11F00303CF
:1004E00000F0AA80083AC0F0088051F8043B083AAE
:1004F00051F804CBA0E80810F5E7121D5CBF51F8D5
:10050000043B40F8043BAFF30080D20724BF11F84E
:10051000013B11F801CB48BF11F8012B24BF00F8B3
:10052000013B00F801CB48BF00F8012B7047704732
:100530007047704770472DE9F0470D46994692463F
:10054000044600F124080168880604D5E06921F01A
:100550001001216000E00120A84201DD471B00E0FE
:100560000027A1697A1902EB0900081AA061207816
:10057000C00602D42046AFF30080002608E0D4E98C
:1005800001211AF806009047206A401C761C206260
:100590004E45F4DB2078C0060AD52046AFF3008034
:1005A00006E0D4E9012130209047206A401C2062F7
:1005B000381EA7F10107F4DC07E0D4E9012118F89F
:1005C00005009047206A401C2062281EA5F1010505
:1005D000F3DC2046AFF300802078000602D502202D
:1005E000BDE8F0870120FBE710B5436913B1AFF315
:1005F000008001E0FFF7F0FE012010BD127800F14D
:1006000024010A7000224A700122EDE711684FF0C0
:10061000FF32E9E7074B70B50D467B4400F043F825
:100620000446284600F052F810B14FF0FF3070BD7C
:10063000204670BD831A000010B5203AC0F00B8030
:10064000B1E81850203AA0E81850B1E81850A0E8D6
:100650001850BFF4F5AF5FEA027C24BFB1E8185030
:10066000A0E8185044BF18C918C0BDE810405FEAA0
:10067000827C24BF51F8043B40F8043B08BF70471C
:10068000D20728BF31F8023B48BF11F8012B28BF21
:1006900020F8023B48BF00F8012B704701694A1C53
:1006A00002610878704700B58FB0CDE901310021B3
:1006B000059105497944CDE9031011466846FFF7D5
:1006C00057FE0FB000BD0000E5FFFFFF007B00F00C
:1006D00080007047754600F02BF8AE46050069466D
:1006E000534620F00700854618B020B5FFF720FEDE
:1006F000BDE820404FF000064FF000074FF0000823
:100700004FF0000B21F00701AC46ACE8C009ACE8A3
:10071000C009ACE8C009ACE8C0098D46704710B507
:100720000446AFF300802046BDE81040FFF78FBDC0
:1007300000487047181400201CB502F047FA0C4915
:100740000220CDE90001020200230AA10C4803F0B7
:1007500029F8012802D10BA0FFF7FEFD0448001F75
:10076000006802F075FBBDE81C4002F06BBA0000A7
:1007700028000020546573745F5461736B0000009F
:1007800049150008B4B4BDA8546573745F5461730F
:100790006BC8CECEF1B3C9B9A6210D0A0000000086
:1007A000FEE7704700224FF0204310280AD0B0F532
:1007B000807F09D0B0F5805F09D0D3F8580181431C
:1007C00009D107E0586EFAE7D3F88400F7E7D3F8C9
:1007D000A400F4E7012210467047D0E9001211434B
:1007E00082686FF01F03C06803EB421242EA4020A8
:1007F00001434FF02040C0F850117047F0B5066833
:10080000B100A1F1C041D1F84011CD0BD0E90112E6
:100810001143D0E903231A4311434269046A114387
:100820008269436A1143C269ED03114321431943AD
:1008300029434FF02045EEB3D5F8406122436FF3D2
:100840000E0633431A43C5F8402102689200A2F114
:10085000C042C2F840116FF00F0213011403016887
:10086000160441B38900A1F1C041D1F8481101F04B
:10087000704C816AD1E9007E02EB0E127F1E174395
:100880008A6803EB022217430A8A04EB02421743E9
:10089000D5F8482147EA0C0702F07043CA68898AF4
:1008A000120306EB0151A2F580520A431A43C5F820
:1008B000482101E007E009E000688000A0F1C040A5
:1008C000C0F84871F0BDC5F84011C4E7D5F848112B
:1008D000806A01F07047D0E9001C02EB0C12491E3F
:1008E0001143826803EB022211430B4BC26803EBF6
:1008F00002321143028A04EB02421143828A007ED3
:1009000006EB025211431A0302EB00600143394324
:10091000C5F84811F0BD000000F0FFFF4FF0204186
:10092000D1F8542142EA4000C1F854017047F0B5B3
:10093000002201274FF0030C0B6807FA02F52B4049
:10094000AB422CD1066853000CFA03F4A6430660B0
:100950000E79D0F800E09E4046EA0E0606600E7959
:10096000012E01D0022E12D18668A64386604E79F0
:10097000D0F808E09E4046EA0E0686604668AE4320
:10098000466045688E799640B6B235434560C56885
:10099000A543C560CC799C40C3681C43C460521C0D
:1009A000102AC9D3F0BD4B07DB0E9A40C90810B519
:1009B00000EB8100016A0F249C40A1430162016A9F
:1009C0001143016210BDFEE7FEE7704730B50F230B
:1009D000C27801780125FAB1144A126801F1E021C8
:1009E00002F4E062C2F5E062C2F30722C2F104043D
:1009F000D3404278A24084781C401443220181F8FD
:100A00000024007800F01F018D404009800000F1B3
:100A1000E020C0F8005130BD01F01F0085404809BA
:100A2000800000F1E020C0F8805130BD0CED00E006
:100A30000249084302490860704700000000FA05B7
:100A40000CED00E0044A0029116801D0014300E0E8
:100A5000814311607047000030380240044A002989
:100A6000116801D0014300E081431160704700002C
:100A700038380240044A0029116801D0014300E0DF
:100A800081431160704700004438024070B5204B2C
:100A90001968204C11F00C0104D01F4E042903D01A
:100AA000082903D004601BE0066019E0184A121FF1
:100AB0001168C1F38055116801F03F0115B1B6FB13
:100AC000F1F101E0B4FBF1F114681268C4F3881489
:100AD0006143C2F30142521C5200B1FBF2F10160CA
:100AE00019680F2202EA11110C4A545C0168E140B6
:100AF00041601C68072505EA9424145D21FA04F47A
:100B000084601B6805EA5333D25CD140C16070BD7C
:100B1000083802400024F40040787D0114000020D1
:100B20002DE9FC5F0121FC20FFF78CFF02208DF8EE
:100B300004008DF8050000208DF806008DF80700F0
:100B4000012000906946D148FFF7F1FE0C220021F8
:100B5000CE48FFF728FF022000906946CB48FFF7F8
:100B6000E6FE0C220121C948FFF71DFF042000907A
:100B70006946C648FFF7DBFE0C220221C348FFF797
:100B800012FF082000906946C048FFF7D0FE0C22F3
:100B90000321BE48FFF707FF10266946BB480096B1
:100BA000FFF7C5FE0C220421B848FFF7FCFE202702
:100BB0006946B6480097FFF7BAFE0C220521B348F4
:100BC000FFF7F1FE4FF480596946B048CDF8009028
:100BD000FFF7ADFE0C221146AC48FFF7E4FE7002B1
:100BE00000906946A948FFF7A2FE0C220D21A748F4
:100BF000FFF7D9FEB5026946A4480095FFF797FEB6
:100C00000C220E21A148FFF7CEFE6C0069469F48DA
:100C10000094FFF78CFE0C220F219C48FFF7C3FEC7
:100C20000120009069469A48FFF781FE0C220021BE
:100C30009748FFF7B8FE0220009069469448FFF7F6
:100C400076FE0C2201219248FFF7ADFE69469048DE
:100C50000096FFF76CFE0C2204218D48FFF7A3FEDF
:100C600069468B480097FFF762FE0C2205218848F1
:100C7000FFF799FE694687480095FFF758FE0C225A
:100C80000E218448FFF78FFE694682480094FFF7E3
:100C90004EFE0C220F217F48FFF785FE01200090B9
:100CA00069467C48FFF743FE0C2200217948FFF794
:100CB0007AFE0220009069467648FFF738FE0C2243
:100CC00001217448FFF76FFE4FF0800869467248B3
:100CD000CDF80080FFF72BFE0C2207216E48FFF7AE
:100CE00062FEE61169466C480096FFF720FE0C2272
:100CF00008216948FFF757FE4FF4007A69466648B5
:100D0000CDF800A0FFF713FE0C2209216248FFF77F
:100D10004AFE4FF4806B69465F48CDF800B0FFF79C
:100D200006FE0C220A215C48FFF73DFE27116946AA
:100D300059480097FFF7FBFD0C220B215648FFF79F
:100D400032FE69465448CDF80090FFF7F0FD0C22C2
:100D500011465148FFF727FEA010009069464E4803
:100D6000FFF7E5FD0C220D214B48FFF71CFE6946FD
:100D700049480095FFF7DBFD0C220E214648FFF79E
:100D800012FE694644480094FFF7D1FD0C220F2162
:100D90004148FFF708FE69463E480096FFF7C7FD49
:100DA0000C2208213B48FFF7FEFD69463948CDF883
:100DB00000A0FFF7BCFD0C2209213648FFF7F3FD28
:100DC00069463448CDF800B0FFF7B1FD0C220A2186
:100DD0003048FFF7E8FD4020304D00906946284636
:100DE000FFF7A5FD0C2206212846FFF7DCFD0120B8
:100DF000DFF8AC90009069464846FFF798FD0C225A
:100E000000214846FFF7CFFD694620480097FFF7CD
:100E10008EFD0C220B211D48FFF7C5FD69461C48BD
:100E20000094FFF784FD0C220F211948FFF7BBFD4A
:100E3000694617480096FFF77AFD0C2208211448EE
:100E4000FFF7B1FD69462846CDF80080FFF76FFD3A
:100E50000C2207212846FFF7A6FD022000906946D4
:100E60000D48FFF764FD0C2201210B48FFF79BFDA5
:100E70000120009069460848FFF759FD0C22002127
:100E80000548FFF790FDBDE8FC9F000000140240FC
:100E900000180240000C024000100240001C0240FA
:100EA0000008024000B593B0FFF73AFE0121084662
:100EB000FFF7D4FD0421022007220D91CDE90B029A
:100EC000CDE90E2010901190012000900020CDE976
:100ED000010110210391402104918900CDE9051001
:100EE000C90007914900CDE908100BA80A9068468F
:100EF000FFF784FC00F002F813B000BDF0B585B038
:100F00000126082500240096CDE9015403942021F0
:100F10000120FFF747FC0028F9D16846FFF75DFC88
:100F20000A201E480490401E0490FCD1022700971E
:100F3000CDE90154039420210120FFF733FC002860
:100F4000F9D16846FFF749FC032003948DE8A1001E
:100F500020210120FFF726FC0028F9D16846FFF781
:100F60003CFC40F222200421CDE90260CDE90015CD
:100F700020210120FFF716FC0028F9D16846FFF771
:100F80002CFC40F26A50FFF7C9FC20210120FFF73A
:100F900009FC0028F9D105B0F0BD000040420F0067
:100FA0000029018802D041F0400101E021F0400118
:100FB000018070472DE9F04104461048402615464F
:100FC0000F460680032000F069F9C7F3074000F0E0
:100FD00065F9C7F3072000F061F9F8B200F05EF997
:100FE00004E0FF2000F05AF904F8010B6D1EADB2C9
:100FF000F7D20248801E0680BDE8F0811A14024034
:101000002DE9F04706460D4611F0FF00C0F1000142
:10101000CFB24FEA122402F0FF094FF4807A13D0C6
:10102000E8B24042C0B205EB00080CB3D01B80B25E
:10103000040A00F0FF093A462946304600F0A6F8B7
:101040003E44454657462DE06CB15746641EE4B217
:101050000CD33A462946304600F098F805F58075DD
:1010600006F58076F2E7294630460EE04A46FAE772
:10107000B945F8D9A9EB0700C4B23A46294630462B
:1010800000F084F84146F0192246BDE8F04700F030
:101090007DB83A462946304600F078F805F5807567
:1010A00006F58076641EE4B2F3D2B9F1000001D0F7
:1010B0000246D8E7BDE8F0872DE9F04387B001216B
:1010C0002020FFF7BFFC01210805FFF7D3FCDFF864
:1010D000B490052207214846FFF765FC0522082148
:1010E0004846FFF760FC052209214846FFF75BFCF4
:1010F00002258DF8055080208DF8045000240090C2
:101100008DF806408DF8074069464846FFF70FFC0A
:10111000E801009069464846FFF709FC2E0269463F
:1011200048460096FFF703FC40274FF00108009760
:101130008DF8048069464846FFF7F9FB11481830DE
:101140000780ADF808404FF48270ADF81440ADF858
:101150000A00ADF80C40ADF8164007200A4CADF877
:101160001080ADF81800ADF80E50ADF8126002A96D
:10117000204600F00CF901212046FFF711FF07B0CF
:10118000BDE8F08300140240005001402DE9F04119
:1011900014460F46054600F0D3F813484026068053
:1011A000022000F07BF8C7F3074000F077F8C7F3A0
:1011B000072000F073F8F8B200F070F8B000844235
:1011C00008D9044609A0FFF7C7F803E0287800F023
:1011D00065F86D1C641EA4B2F8D20348801E068018
:1011E000BDE8F04100F08CB81A1402403C3C2D469A
:1011F0004C4153482D4552524F522D3E3E205350A4
:10120000495F464C4153485F506167655772697446
:101210006520746F6F206C61726765210A000000A1
:1012200070B50D48402404809F2000F037F8FF205F
:1012300000F034F80646FF2000F030F80546FF20A5
:1012400000F02CF801460448801E0480300440EA77
:101250000520084370BD00001A14024070B5044612
:1012600000F06EF800F04CF80B4840250580202077
:1012700000F014F8C4F3074000F010F8C4F307209E
:1012800000F00CF8E0B200F009F80348801E058079
:10129000BDE8704000F034B81A1402402DE9F04166
:1012A000154C4FF4805507462560144E03E0206826
:1012B000411E216010D30221304600F05DF8002865
:1012C000F5D03946304600F060F8256009E0216825
:1012D000481E206005D2012000F076F8C0B2BDE8BB
:1012E000F0810121304600F047F80028EFD0304669
:1012F00000F049F8F2E700004000002000500140F3
:1013000070B50D48402505800520FFF7C7FF0B4C41
:10131000A8012060FF20FFF7C1FF21684A1E22605C
:1013200004D2BDE87040042000F04EB8C007F1D1EF
:101330000148801E058070BD1A1402404000002044
:1013400010B50548402404800620FFF7A7FF024897
:10135000801E048010BD00001A14024010B505481C
:1013600040240480AB20FFF799FF0248801E0480D0
:1013700010BD00001A1402400246002012890A42E1
:1013800000D001207047808970478181704730B557
:1013900002884C8802F441530A88CD8822438C8805
:1013A0002C4322430C8922434C8922438C892243BB
:1013B000CC8922431A430280828B22F4006282830A
:1013C000098A018230BD000010B5014602A0FEF777
:1013D000C3FF002010BD00003C3C2D464C4153484B
:1013E0002D4552524F522D3E3E2053504920B5C8F4
:1013F000B4FDB3ACCAB1216572726F72436F64659C
:10140000203D2025640A00001CB500212E4A0091D1
:101410000191106840F4803010604FF4A0431068D0
:1014200000F4003001900098401C0090019810B921
:1014300000989842F3D11068800342D501200190B2
:1014400021484030016841F0805101601F4908681F
:1014500040F4404008601C4808300368036003689B
:1014600043F400430360036843F4A0530360041F84
:10147000174B2360136843F08073136013689B015C
:10148000FCD50A6842F480320A604A68D203FCD56F
:101490000A6842F400320A604A689203FCD50D4A99
:1014A00040F205711160016821F0030101600168DB
:1014B00041F0020101600168C1F381010229FAD102
:1014C0001CBD01911CBD00000038024000700040AE
:1014D000195A4007003C024010B502F08FF901286C
:1014E00003D0BDE8104001F0D9BE10BD124810B5C0
:1014F000016841F4700101601048016841F0010188
:1015000001600E4A00210832116002680C4B1A403B
:101510000260031D0B4A1A60026822F480220260F6
:1015200006480C300160FFF76FFF03494FF0006081
:101530008039086010BD000088ED00E000380240EE
:10154000FFFFF6FE1030002401F04CF90A4E4FF474
:1015500080544FF4FA75B71E348008A0FEF7FCFEE5
:10156000284601F03BFC3C800CA0FEF7F5FE284627
:1015700001F034FCF0E700001A0C02403E3E3E2031
:10158000546573745F5461736B2052756E6E696E2F
:10159000672C4C4544315F4F4E0D0A003E3E3E20C5
:1015A000546573745F5461736B2052756E6E696E0F
:1015B000672C4C4544315F4F46460D0A0000000041
:1015C0000029818902D041F4005101E021F4005149
:1015D000818170470246002012880A4200D0012013
:1015E000704710B5C1F3421301F01F040121A1405F
:1015F000012B07D0022B07D01430002A026805D037
:101600000A4304E00C30F8E71030F6E78A43026042
:1016100010BD00007FB50446008A0D46C98820F43D
:10162000405001432182A08941F20C618843A9887E
:101630002A8911436A8902431143A181A08A20F4B7
:101640004071A8890843A0826846FFF71FFA1A482C
:10165000844202D01948844201D1039800E00298E4
:10166000A189090400EBC00101EB0010296801D534
:10167000490000E08900B0FBF1F06422B0FBF2F118
:1016800009010B096FF018056B4300EB8300A38978
:101690001D044FF0320306D503EBC000B0FBF2F09F
:1016A00000F0070005E003EB0010B0FBF2F000F0E3
:1016B0000F00084320817FBD00100140001401404D
:1016C000C1F3080181807047FEE7704710B50446FA
:1016D00000202071401E2063204600F076FD08B1F6
:1016E000032010BDB4F83202A0F52A41553901D0CB
:1016F000022010BD94F86A00B4F86B1040EA012192
:101700000848B0EB012F08D094F88610B4F8872071
:1017100041EA0221B0EB012F01D1002010BD0120D0
:1017200010BD00000046415410B501004FF001000B
:1017300010D001290ED1FFF7BFFC4FF4FA70401E04
:101740000004000CFBD1FFF709FEBDE810400120AA
:1017500000F02EB810BD03004FF0040012D0012B92
:1017600010D1012904D0022905D0032909D106E0AE
:101770004FF4206004E04FF48050108001E001201D
:1017800010600020704770B50C4601004FF0040057
:101790000DD001290BD115464FF6FF7000EA033238
:1017A0002903204601F5C001FFF704FC002070BDAD
:1017B00010B5012438B1012805D1FFF731FD0349E7
:1017C000884200D10024204610BD00001840EF00E0
:1017D00070B50D4601461C004FF0040013D00029DF
:1017E00010D001290ED1160306F5C0063046FFF7CA
:1017F00035FD4FF6FF7000EA043231462846FFF708
:10180000FFFB002070BD042070BD00002DE9F74FE4
:1018100086B090460798012803D9132009B0BDE887
:10182000F08F06A800F052FC002801DA0B20F5E743
:10183000F84951F820604EB100213170C0B20290D9
:10184000FFF772FFC10703D00320E7E70C20E5E7AD
:10185000400701D50A20E1E706F10A0202210298B9
:10186000FFF779FF002876D17089B0F5805F72D8D4
:10187000B0F5007F6FD303AA01210298FFF76BFF39
:101880000028F0D103988028F4D3079909B10021EA
:1018900000E03F218A46A0EB0A01A8F1010218EA04
:1018A000020F039102D1B8F1000F13D170894FF4E8
:1018B000FA62400AB2FBF0F0B1FBF0F20020D64B26
:1018C00000E0401C33F810509542FAD8D24A163244
:1018D00032F81080B8F5007F02D37289B8FBF2F8B5
:1018E000B8F1000F12D0B8F1800F01D980208046E6
:1018F000B1FBF8F0012740F6F672904200D30227C0
:101900004FF6F672904203D3032725E00120EEE75D
:10191000032F21D0012F29D04200121D7089521EA1
:101920000244B2FBF0F90125AA03B2FBF0F00490E7
:101930000AEB050B049A0BEB0900841804EB080270
:10194000A2EB0A00884244D86A4603210298FFF7B6
:1019500002FFB0B910E0FFE07289072303EB8000BB
:101960001044B0FBF2F920250020E0E700EB400036
:10197000401C4208D21CD1E7009810B1B0F5004FCE
:1019800001D9012000902118401E491E8143081BE7
:101990000090032F10D0814403980499421BA2EBBE
:1019A0000902521AB2FBF8F10591022F07D0032F5A
:1019B0000AD0012F11D015E005448344ECE740F62E
:1019C000F672914205D30DE008464FF6F671884253
:1019D00001D20E2022E70C240AE0B0F5803F06D2A7
:1019E000012405E0B0F5803F01D2042400E0062484
:1019F000079808B1F02038E0728906F13400002120
:101A0000019000F0DBFB06F5F97001214170817057
:101A10000022C2700471FE214171039B0AEB030195
:101A200043F6C163B1FBF3F13F2343EA9104009114
:101A30008471C171037242728272C272039901731E
:101A40000A0A42730A0C8273090EC173552086F884
:101A50003202AA2086F83302DDE9011001230022B8
:101A6000FFF7B6FE002877D1F820019006F1340484
:101A700072890021204600F0A1FB0B2267A12046BD
:101A800000F094FB7089E072000A207384F80D80E6
:101A9000A573280AE07301202074032F0BD04002A5
:101AA0006074000AA0740398B0F5803F05D2E0741A
:101AB000000A20750CE00020F2E784F82000010AFB
:101AC00084F82110010C84F82210000E84F8230001
:101AD000019860753F20207600206076FF21A17676
:101AE000E07684F81CA04FEA1A2060774FEA1A408B
:101AF000A0774FEA1A60E07700F0E4FA802129220B
:101B00000090032F29D084F82700030A84F8283096
:101B1000030C84F82930000E84F82A0084F816900B
:101B20004FEA1920E07584F8241084F82620132247
:101B30003DA104F12B0000F039FB552084F8FE0193
:101B4000AA2084F8FF010123524621460298FFF79C
:101B50003FFE002800D136E0D9E084F84300030AB4
:101B600084F84430030C84F84530000E84F84600B5
:101B700084F824904FEA192084F825004FEA194090
:101B800084F826004FEA196084F82700022084F8C0
:101B90002C00002084F82D0084F82E0084F82F00FB
:101BA000012384F8303084F83100062384F8323081
:101BB00084F8330084F8401084F8422013221FA1D7
:101BC00004F14700B7E7032F06D101230AF106020B
:101BD00021460298FFF7FCFD5D464FF0000B72892D
:101BE0000021204600F0EAFA01980090032F31D03E
:101BF000012F2DD06FF0FF0101430091217000985B
:101C0000000A60700098000CA0700098000EE07050
:101C100037E0000048000020683B0008EBFE904DD4
:101C200053444F53352E30004E4F204E414D4520EA
:101C30002020204641542020202020004E4F204EBE
:101C4000414D4520202020464154333220202000A1
:101C50004949D1E760F0FF00009020700098000A29
:101C600060700098000CA0700098000EE070FF20DB
:101C700020716071A071E07120726072A0720F20FB
:101C8000E0722A466D1C012321460298FFF7A0FD51
:101C9000E8BB72890021204600F090FA012009E09B
:101CA0002A466D1C012321460298FFF791FD70BB67
:101CB0000098401C00904845F2D30BF101005FEA08
:101CC000000B8CD0032F09D0049E2A466D1C0123E3
:101CD00021460298FFF77CFDC8B901E04646F4E7CB
:101CE000761EF2D1032F3CD1522020706070612209
:101CF000A2704120E070722184F8E41184F8E511AB
:101D000084F8E60184F8E7210598401E00E030E001
:101D100084F8E801010A84F8E911010C84F8EA1159
:101D2000000E84F8EB01022084F8EC01002084F816
:101D3000ED0184F8EE0184F8EF01552084F8FE01EE
:101D4000AA2084F8FF0101230AF10102214602982A
:101D5000FFF73EFD01230AF1070221460298FFF733
:101D600037FD002211460298FFF7F5FC00283FF4EA
:101D70005EAD012052E5000000FFFF002DE9F741B4
:101D800081B0904602980090684600F09FF90400E8
:101D900003D50B2004B0BDE8F081144E002756F89F
:101DA000245025B1E86800F02DF888B12F70019912
:101DB00029B101F80C7BE0B200F01AF840B10198AB
:101DC00046F8240010B1B8F1010F03D00020E1E77C
:101DD0000220DFE7002202A901A800F029F804464A
:101DE0000146019800F0A8FD2046D3E748000020F6
:101DF00010B50C46012001F067FA2060002800D0E1
:101E0000012010BD10B500F0ADFF012010BD002372
:101E10001A46194601F0C0BB10B500234FF47A7280
:101E2000194601F09BFA012800D0002010BD0000E7
:101E30002DE9FF474FF0000A0746C0F800A01646FC
:101E4000084600F043F9050003D50B2004B0BDE8B7
:101E5000F087904850F82540ACB1204600F054F986
:101E600098B13C60207820B16078FFF7A1FCC107F1
:101E70000DD084F800A0E8B26070FFF755FCC107F0
:101E80000AD00320E2E70C20E0E70F20DEE70EB1E6
:101E9000400704D40020D9E71EB1400701D50A202D
:101EA000D4E7607804F10A020221FFF754FCA0BBDA
:101EB0006089B0F5007F31D3B0F5805F2ED8002562
:101EC00029462046FFF702FC012822D100206E4659
:101ED00004EB001191F8F62101F5F9712AB10A7AA3
:101EE000D1F8091042EA012100E0002146F8201053
:101EF000401C0428ECD3002756F8275025B129466A
:101F00002046FFF7E3FB00E0022048B17F1C042FCE
:101F1000F2D3032802D0E8BB02E0FFE7012095E7F7
:101F2000B4F83F006289904263D1B4F84A0028B9FE
:101F300094F85800D4F8591040EA0120E06194F870
:101F400044708146E770012F01D0022F51D194F8DF
:101F500041604743A670EEB1701E064249D1B4F805
:101F600045104FEA521CB1FBFCF00CFB1010218114
:101F700080B9B4F8470028B994F85400D4F8553023
:101F800040EA0320B4F8423023B1B1FBFCFC03EB80
:101F9000070800E02DE0C44460452AD3A0EB0C0004
:101FA000B0FBF6F028B3012640F6F678404500D3A2
:101FB00002264FF6F678404500D30326801CAC4439
:101FC000C4F82CC02B44A061C4E90853032E12D0DE
:101FD00079B1D919A162022E18D000F0010100EBED
:101FE000400001EB5000401E1044B0FBF2F14945A7
:101FF0000ED90D202AE70029FBD194F86010D4F8FF
:102000006130800041EA0321A162ECE74000EAE789
:102010004FF0FF306061206180206071032E30D16D
:10202000B4F8640001282CD12046691C00F0CDF8DA
:1020300038BB84F805A0B4F83202A0F52A4155391E
:102040001FD194F83400D4F8351040EA0120124929
:10205000884216D194F81802D4F8191240EA0120E7
:102060000E4988420DD194F81C02D4F81D1240EAA2
:102070000120606194F82002D4F8211240EA012086
:10208000206104492670091F0888401C0880E080F0
:1020900000E7000048000020525261417272416125
:1020A00070B5074D0446C1B22846FFF709FB8021F1
:1020B0002846FFF78FFA0028F9D0204670BD0000AF
:1020C00000100140004870470000214610B503464B
:1020D0004FF0FF301C68002C13D0214600E0491C53
:1020E0000A78202A0ED33A2AF9D114F8012B303A73
:1020F0000A2A06D28C4204D1022A02D2491C104676
:10210000196010BD002010BDC068FFF785BE00003B
:102110001CB54FF44070FEF78BFC00F08BFC00F018
:102120002BFCFEF7BFFEFEF7C7FF0C4800F0D0FC0B
:102130000BA0FEF711F9094901200839CDE900018A
:102140004202002314A1184801F02CFB012802D000
:102150004FF0FF301CBD00F083FFFEE72C00002095
:10216000D5E2CAC7D2BBB8F65BD2B0BBF05D2D5387
:10217000544D3332C8ABCFB5C1D0BFAAB7A2B0E57A
:102180002D4672656552544F53B9CCBCFEBFE2C0B8
:10219000FDB3CCA3A10A0A004170705461736B4374
:1021A00072656174650000003907000803E011F8EA
:1021B000013B00F8013B521EF9D27047C9B201E061
:1021C00000F8011B521EFBD2704770B50446006B2D
:1021D0000E460025B0420FD0204600F0D9FA050087
:1021E0000AD160780123324604F13401FFF7CBFABB
:1021F00008B16E1E01252663284670BD2DE9F04109
:10220000184E0F460446F5683068001D00F0A2FB2A
:1022100038B9306890F82C1001208840316981432A
:102220003161601C07D137B13168BDE8F0410E481B
:10223000091D00F041BC30682C44AC424460316858
:1022400005D2B06BBDE8F041091D00F01DBC706BFC
:10225000091D00F019FCB06A844200D2B462BDE8E6
:10226000F081000050000020041400202DE9F0410E
:10227000054600F0ABFC2D4EB068401CB0603068E5
:102280002B4F10B1706930B32BE03560B068012876
:1022900027D1002404EB840007EB800000F0E6FB6C
:1022A000641C202CF6D3234800F0E0FB21481430B6
:1022B00000F0DCFB1F48283000F0D8FB1D483C3004
:1022C00000F0D4FB1B48503000F0D0FB194870637D
:1022D0001430B06305E03068E96AC06A884200D80B
:1022E0003560706A0121401C7062E86A3269814081
:1022F0001143316100EB800007EB8000291D00F0E5
:10230000DBFB00F09FFC706900280CD03068E96AA4
:10231000C06A884207D208494FF080500860BFF376
:102320004F8FBFF36F8FBDE8F08100005000002099
:1023300034110020B413002004ED00E070B5124EFB
:10234000124D1CE000F0D6FE306820B1002401F0F0
:1023500089FBA4B901E00124F9E700F037FCF0683B
:10236000C468201D00F0F6FAA868401EA8606868DE
:10237000401E686000F066FC204600F052F8686875
:102380000028DFD170BD0000F013002050000020B5
:1023900030B4026C0B46002A0BD0C1681144C160F6
:1023A0004468A14201D30168C16030BC1846FEF701
:1023B00079B830BC70472DE9F041856B174604466B
:1023C0000026026C82B1C7B1E068FEF76BF8E168E5
:1023D000206C091AE1602268914202D26168081AF1
:1023E000E060022F16D017E02068A8B9606801F0FD
:1023F0008BFA0646002060600EE0A068FEF752F8F7
:10240000216CA0680844A0606168884204D32068F9
:10241000A06001E005B16D1E6D1CA5633046BDE8EE
:10242000F08110B50446006B00F03EFC2046BDE88C
:10243000104000F039BC0000074E4FF08054074DAB
:10244000FFF77CFF30680128FAD92C60BFF34F8F6B
:10245000BFF36F8FF4E700003411002004ED00E0BB
:102460002DE9F047DDE909840E4682466FF003014D
:10247000206B01EB82010844089D20F00707994674
:10248000780705D040F22B3219A120A0FDF764FF98
:1024900000202218315C82F83410315C11B1401CEC
:1024A0001028F6D3002684F84360202D00D31F2582
:1024B000E562C4E91156201D00F0E3FA04F11800AA
:1024C00000F0DFFA2461C5F120006462A061E664D7
:1024D00084F850604A465146384600F043F920607F
:1024E000B8F1000F01D0C8F80040BDE8F087000047
:1024F0002E2E5C2E2E5C4672656552544F535C73D3
:1025000072635C7461736B732E6300004572726F4B
:10251000723A25732C25640D0A00000030B511496C
:1025200000E011460A688242FBD34B685C18844283
:1025300003D1406818444860084643681C18944218
:1025400009D1084C103C2468A24209D052681A44B0
:1025500042600A6812680260814200D0086030BDA3
:102560000460F9E7A800002010B5044600F02EFB37
:10257000A06B20B1002400F065FB204610BD0124B3
:10258000F9E700000648416B096829B1416BC96849
:10259000C9684968816270474FF0FF31FAE700006F
:1025A0005000002008484068401C05D040F20F123F
:1025B00006A111A0FDF7D0FE502080F31188BFF3D3
:1025C0004F8FBFF36F8FFEE78C0000202E2E5C2E06
:1025D0002E5C4672656552544F535C706F72745C2A
:1025E000525644535C41524D5F434D34465C706FCC
:1025F00072742E63000000004572726F723A257388
:102600002C25640D0A0000002DE9F041044600F07D
:10261000DDFA94F9455004F1240609E0606A48B1F6
:10262000304601F0CFF908B100F07CFC6D1E6DB2B0
:10263000002DF3DC4FF0FF3684F8456000F002FB1C
:1026400000F0C4FA94F9445004F1100709E020693D
:1026500048B1384601F0B6F908B100F063FC6D1ED0
:102660006DB2002DF3DC84F84460BDE8F04100F069
:10267000E9BA00002DE9F041254F054600263868EB
:1026800020B9B52223A12DA0FDF766FE00F032FD92
:10269000F868054236D1ADB30835680704D005F0B7
:1026A0000700C0F10800054465B37868854229D861
:1026B000174910310846046801E021460446606865
:1026C000A84202D220680028F7D13868844219D085
:1026D0000E682068086060680836411B102904D91C
:1026E000601941606560FFF719FF61687868401AFA
:1026F0007860BA68904200D2B860F8680143002060
:10270000C4E9000101F0AEF93046BDE8F0810000F7
:10271000980000202E2E5C2E2E5C46726565525469
:102720004F535C706F72745C4D656D4D616E675C8C
:10273000686561705F352E63000000004572726F3E
:10274000723A25732C25640D0A00000004490868BC
:1027500018B10868826C521C8264086870470000D7
:102760005000002010B5031F4FF080741C601B1F29
:1027700021F001011960191F044B0B6014390A6024
:10278000091F6FF0020244380A6010BDA525000839
:102790002DE9F041044600790027F8B1266B04F1D9
:1027A00034016078012332468846FFF711F808B1FA
:1027B000012713E000202071606AE169301A884225
:1027C0000CD2E57808E0E0690123064460783246DF
:1027D0004146FEF7FDFF6D1E022DF4D23846BDE8DE
:1027E000F081000010B5012216A11748FFF7C6FAC4
:1027F00001460D2809D000291FD014A0FDF7ACFD1B
:102800001DA0FDF7A9FD012010BD26A0FDF7A4FD28
:10281000002211460BA0FEF7F9FF08B12DA0F0E74A
:1028200033A0FDF799FD012206A10020FFF7A6FACB
:10283000012204A10448FFF7A1FA36A0FDF78CFDA0
:10284000002010BD313A0000B00000203E3E3E2086
:10285000A3A1A3A1CDE2B2BF466C617368B9D2D483
:10286000D8CEC4BCFECFB5CDB3CAA7B0DCA1A328D7
:102870002564290D0A0000003E3E3E20A3A1A3A12D
:10288000BFC9C4DCD4ADD2F2A3BA53504920466CC0
:10289000617368B3F5CABCBBAFB2BBB3C9B9A6A17B
:1028A000A30D0A003E3E3E20464C415348BBB9C3EF
:1028B000BBD3D0CEC4BCFECFB5CDB3A3ACBCB4BDEE
:1028C000ABBDF8D0D0B8F1CABDBBAF2E2E2E0D0ACD
:1028D000000000003E3E3E20A1B6A1B6B8F1CABD40
:1028E000BBAFCAA7B0DCA1A3A1B7A1B70D0A000076
:1028F0003E3E3E20464C415348D2D1B3C9B9A6B85A
:10290000F1CABDBBAFCEC4BCFECFB5CDB3A1A30D44
:102910000A0000003E3E3E20535049B4AED0D0469F
:102920004C415348CEC4BCFECFB5CDB3B9D2D4D8F8
:10293000B3C9B9A60D0A000000280AD00C2908D096
:102940000B2906D0092904D00F2902D0C068FFF74F
:102950005EBA7047D0E9013201699A60D0E901237B
:102960005A604A68824201D182684A60002202614C
:102970000868401E08607047F0B5012187B008461E
:10298000FEF760F801211020FEF774F801250024FD
:102990008DF806408DF8075002266802234F8DF807
:1029A000056000908DF8046069463846FDF7BFFF6A
:1029B000A80200908DF8046069463846FDF7B7FF1D
:1029C00007220A213846FDF7EEFF07220921384683
:1029D000FDF7E9FF4FF4E130ADF80C400290ADF89F
:1029E0000E40ADF81040ADF814400C20104CADF87E
:1029F000120002A92046FEF70DFE25208DF81800D2
:102A00008DF819508DF81A508DF81B5006A8FDF757
:102A1000DDFF012240F225512046FEF7E2FD0121B3
:102A20002046FEF7CDFD07B0F0BD000000000240DB
:102A3000001001401CB501210820FEF703F8012019
:102A40008DF8040000218DF806108DF807004FF472
:102A500080548DF80510009469460348FDF767FF20
:102A60000148183004801CBD000C024000F1080130
:102A70004FF0FF32C0E90112C16001610021016025
:102A8000704700210161704730B50C68621C02D0AC
:102A900000F1080202E0026904E01A4653681D686A
:102AA000A542FAD953684B6099608A605160086109
:102AB0000168491C016030BD42684A6093688B60C0
:102AC00093685960916008610168491C0160704712
:102AD0002DE9F0472E4C814600262068354628B166
:102AE00040F2BD122BA135A0FDF736FC48464FF051
:102AF000000AA04638E004682046610704D0C41DDF
:102B000024F00704201A3F1A1DB1D8F8000028B19C
:102B10000AE01F481030C0E9004A0FE04FF4EF729E
:102B20001CA126A0FDF718FCD8F800108C4205D88F
:102B300040F2E11217A121A0FDF70EFCE0190838C0
:102B400020F00700D8F80010C8F80000C0F804A072
:102B5000021BC0F800A0C4E9000201B10C6060686B
:102B60006D1C064409EBC5004768002FC3D1C8F8A7
:102B700008604446C8F804602EB940F20A2205A154
:102B80000EA0FDF7E9FB4FF00040E060BDE8F087E4
:102B9000980000202E2E5C2E2E5C467265655254E5
:102BA0004F535C706F72745C4D656D4D616E675C08
:102BB000686561705F352E63000000004572726FBA
:102BC000723A25732C25640D0A000000502080F312
:102BD0001188BFF34F8FBFF36F8F09494868401CBE
:102BE000486001280AD10748006810F0FF0F05D09F
:102BF00040F2B91204A10FA0FDF7AEBB7047000070
:102C00008C00002004ED00E02E2E5C2E2E5C46721F
:102C1000656552544F535C706F72745C52564453E6
:102C20005C41524D5F434D34465C706F72742E634D
:102C3000000000004572726F723A25732C25640DF6
:102C40000A00000010B5084C606828B94FF4E07223
:102C500006A111A0FDF780FB6068401E606001D1F5
:102C600080F3118810BD00008C0000202E2E5C2EF9
:102C70002E5C4672656552544F535C706F72745C83
:102C8000525644535C41524D5F434D34465C706F25
:102C900072742E63000000004572726F723A2573E1
:102CA0002C25640D0A00000070B500282AD0164DAE
:102CB000A0F108046068E968084205D140F24912B1
:102CC00012A11CA0FDF748FB206828B14FF4A572A3
:102CD0000EA118A0FDF740FB6068E968084211D01A
:102CE0002268002A0ED18843606000F003FA606811
:102CF0006968084468602046FFF710FCBDE8704032
:102D000000F0B0BE70BD0000980000202E2E5C2E9A
:102D10002E5C4672656552544F535C706F72745CE2
:102D20004D656D4D616E675C686561705F352E63E2
:102D3000000000004572726F723A25732C25640DF5
:102D40000A00000006484FF47A710068B0FBF1F108
:102D50004FF0E020491E41610721016170470000EA
:102D60000000002010B5040005D140F25D6206A10C
:102D70000CA0FDF7F1FA204600F01CF82046BDE853
:102D80001040FFF791BF00002E2E5C2E2E5C467285
:102D9000656552544F535C7372635C7175657565FC
:102DA0002E6300004572726F723A25732C25640DF4
:102DB0000A000000084A002102EBC1035B6883425D
:102DC00006D1002042F8310002EBC1014860704793
:102DD000491C0A29F0D37047E410002010B5040004
:102DE00012D00E49096B29B140F2CF420CA113A0B9
:102DF000FDF7B2FA00F07EF900212046FFF7FEF958
:102E000000F030FE002807D110494FF080500860D4
:102E1000BFF34F8FBFF36F8F10BD00005000002035
:102E20002E2E5C2E2E5C4672656552544F535C7399
:102E300072635C7461736B732E6300004572726F12
:102E4000723A25732C25640D0A00000004ED00E0A1
:102E500070B50446FFF7BAFE234D04B92C68201D57
:102E6000FFF778FD58B9E06A204A00EB800152F87C
:102E7000211021B901218140286988432861A06A75
:102E800018B104F11800FFF765FD686A401C68621C
:102E90002868844207D1211D1548FFF70DFE686898
:102EA000401C686007E0A868401EA8602046FFF745
:102EB000B8FAFFF767FBFFF7C5FE6869002812D074
:102EC000286884420FD1286B28B140F2654209A1DD
:102ED0000FA0FDF741FA12494FF080500860BFF390
:102EE0004F8FBFF36F8F70BD500000203411002052
:102EF000F01300202E2E5C2E2E5C46726565525417
:102F00004F535C7372635C7461736B732E63000068
:102F10004572726F723A25732C25640D0A00000009
:102F200004ED00E001490120C86170475000002015
:102F300070B50D46040005D140F6063207A10EA07B
:102F4000FDF70AFA1048016820461831FFF79CFD8A
:102F50002846BDE870400121FFF750B92E2E5C2EA7
:102F60002E5C4672656552544F535C7372635C7499
:102F700061736B732E6300004572726F723A257332
:102F80002C25640D0A0000005000002070B50400DC
:102F900039D01D4DE06A2968C96A884233D2A069D8
:102FA000002804DB2868C06AC0F12000A061E06A44
:102FB000164E00EB8000616906EB800081421FD154
:102FC000201DFFF7C7FC012150B9E06A00EB800229
:102FD00056F8222022B92A6901FA00F082432A61B8
:102FE0002868C06AE0622A6981401143296100EBC8
:102FF000800006EB8000211DBDE87040FFF75CBD3E
:103000002868C06AE06270BD5000002034110020C2
:1030100010B5040005D140F6C13205A10BA0FDF7A3
:103020009BF90E48016A2160C068606010BD000015
:103030002E2E5C2E2E5C4672656552544F535C7387
:1030400072635C7461736B732E6300004572726F00
:10305000723A25732C25640D0A00000050000020F0
:103060001CB515480024CDE900402346802213A159
:10307000144800F097FB01280AD0401C1BD102B075
:1030800040F28472BDE810400FA116A0FDF764B9AC
:10309000502080F31188BFF34F8FBFF36F8F064826
:1030A0004FF0FF312C38816201214161C460BDE8DD
:1030B0001C4000F069B81CBD7C00002049444C4510
:1030C00000000000392400082E2E5C2E2E5C467273
:1030D000656552544F535C7372635C7461736B73B8
:1030E0002E6300004572726F723A25732C25640DB1
:1030F0000A0000000248016B491C01637047000090
:103100005000002070B5134D286B10B10120E8610C
:1031100070BD0020E86128690F4EB0FA80F0C0F160
:103120001F0000EB800456F8240028B940F6F62270
:103130000AA111A0FDF710F906EB840000F10802C6
:10314000416849684160914201D149684160C8685D
:10315000286070BD50000020341100202E2E5C2EFF
:103160002E5C4672656552544F535C7372635C7497
:1031700061736B732E6300004572726F723A257330
:103180002C25640D0A0000001CB5304C2068304925
:10319000884205D140F259122EA139A0FDF7DCF882
:1031A00020682B49491E884205D14FF4AD7229A1F0
:1031B00033A0FDF7D1F8364C20780190FF20207025
:1031C00020788DF800009DF800009DF8001000F0B8
:1031D000F000884205D040F273121EA128A0FDF72E
:1031E000BBF89DF800002B4A00F05000107007203B
:1031F000906007E09068401E90609DF800004000DD
:103200008DF800009DF800000006F3D4107A00024B
:1032100000F4E0609060019820700C482030016854
:1032200041F470010160016841F070410160FFF7F5
:1032300089FD00205060FDF731F81748016841F022
:1032400040410160FDF71AF800201CBD00ED00E0D0
:1032500071C20F412E2E5C2E2E5C46726565525453
:103260004F535C706F72745C525644535C41524DC4
:103270005F434D34465C706F72742E630000000033
:103280004572726F723A25732C25640D0A00000096
:1032900000E400E08C00002034EF00E010B5502086
:1032A00080F31188BFF34F8FBFF36F8F00F0B4FA34
:1032B00018B104494FF080500860002080F3118855
:1032C00010BD000004ED00E010B502460021012011
:1032D00000F00CF8041E07D00021416001600B468D
:1032E0000A46C16000F058F9204610BD70B50E4680
:1032F000050005D14FF4C4720DA114A0FDF72CF800
:1033000096B105FB06F04830FFF7B4F9040009D088
:1033100004F1480120464EB10160C0E90F56012179
:1033200000F0E2F8204670BD0020ECE70060F4E712
:103330002E2E5C2E2E5C4672656552544F535C7384
:1033400072635C71756575652E6300004572726FFE
:10335000723A25732C25640D0A0000002DE9FF4FF9
:1033600083B09B468A4604004FF0000605D140F228
:10337000DC4251A157A0FCF7EFFFBAF1000F07D1D3
:10338000206C28B140F2DD424BA152A0FCF7E4FFD3
:1033900000F034FA38B9059828B14FF49C6246A180
:1033A0004CA0FCF7D9FF4FF000094FF08057DFF831
:1033B0003481FFF70BFCA56B45B351462046E66808
:1033C000FEF7E6FFBBF1000F13D0E660606A50B174
:1033D00004F1240000F0F6FA28B1C8F80070BFF339
:1033E0004F8FBFF36F8FFFF72DFC012007B0BDE8B3
:1033F000F08F6D1EA563206810B9FFF7A7F9606014
:1034000020690028EFD004F11000E3E7059808B127
:103410001EB106E0FFF716FC27E06846FFF7F8FD4F
:103420000126FFF70FFCFFF765FEFFF7CFFB94F9CE
:103430004400401C01D184F8449094F94500401C9C
:1034400001D184F84590FFF7FDFB05A9684600F01F
:1034500061F9002820460AD0FFF7D6F800F002FBF9
:103460002046FFF781F80028A3D00020BEE7FFF731
:103470007BF8D8B1206830B9FFF7A8FB6068FFF788
:1034800085FDFFF7DFFB04F124000599FFF750FDF0
:103490002046FFF7B9F800F0E5FA002889D1C8F80E
:1034A0000070BFF34F8FBFF36F8F82E72046FFF7A7
:1034B000ABF800F0D7FA7CE72E2E5C2E2E5C46721D
:1034C000656552544F535C7372635C7175657565C5
:1034D0002E6300004572726F723A25732C25640DBD
:1034E0000A00000004ED00E070B50D46040005D1AF
:1034F00040F21B121CA123A0FCF72EFFFFF766FB76
:10350000D4E90F20216802FB001161600021A16352
:103510002168A1600A46D4E90F01401E00FB012189
:10352000E16021464FF0FF3001F8440F487004F18C
:1035300010004DB1FFF79AFA04F12400FFF796FA54
:10354000FFF780FB012070BD21690029F8D000F051
:1035500039FA0028F4D00F494FF080500860BFF3CB
:103560004F8FBFF36F8FEBE72E2E5C2E2E5C4672D3
:10357000656552544F535C7372635C717565756514
:103580002E6300004572726F723A25732C25640D0C
:103590000A00000004ED00E02DE9FF4F83B01F4654
:1035A0008B4604004FF0000605D140F2D9224DA110
:1035B00053A0FCF7D1FEBBF1000F07D1206C28B15E
:1035C00040F2DA2247A14EA0FCF7C6FE022F08D136
:1035D000E06B012805D040F2DB2242A148A0FCF7B5
:1035E000BBFE00F00BF938B9059828B140F2DE2295
:1035F0003CA143A0FCF7B0FE4FF0000A4FF080580A
:10360000DFF80C91FFF7E2FAA06BE16B884205D37B
:10361000022F03D00598C8B1DEB11EE03A465946E4
:103620002046FEF7C8FE616A19B104F1240000F0DB
:10363000C9F928B1C9F80080BFF34F8FBFF36F8F6E
:10364000FFF700FB012007B0BDE8F08FFFF7FAFAA3
:1036500021E06846FFF7DCFC0126FFF7F3FAFFF7ED
:1036600049FDFFF7B3FA94F94400401C01D184F8F6
:1036700044A094F94500401C01D184F845A0FFF70F
:10368000E1FA05A9684600F045F830B12046FEF79A
:10369000BBFF00F0E7F90020D5E7FFF797FAA06B32
:1036A000E16B884201D1012500E00025FFF7CAFA4D
:1036B00095B104F110000599FFF73AFC2046FEF79A
:1036C000A3FF00F0CFF900289CD1C9F80080BFF318
:1036D0004F8FBFF36F8F95E72046FEF795FF00F001
:1036E000C1F98FE72E2E5C2E2E5C46726565525412
:1036F0004F535C7372635C71756575652E63000072
:103700004572726F723A25732C25640D0A00000011
:1037100004ED00E070B50D46040005D140F6CB3253
:1037200014A11BA0FCF718FE2DB940F6CC3211A154
:1037300017A0FCF711FEFFF749FA194AD06829686B
:103740004B1C0FD02368126A934202D062688242F7
:103750000AD96268801A884206D2081A2860204670
:10376000FFF756FC002400E00124FFF76BFA204627
:1037700070BD00002E2E5C2E2E5C46726565525484
:103780004F535C7372635C7461736B732E630000E0
:103790004572726F723A25732C25640D0A00000081
:1037A000500000202DE9FF5F8346DDE90E87994632
:1037B00016468A469000FEF75DFF05001AD0542099
:1037C000FEF758FF040012D025630021CDE9024125
:1037D000CDE900874B46324651465846FEF740FE3B
:1037E0002046FEF743FD012004B0BDE8F09F2846C7
:1037F000FFF75AFA4FF0FF30F6E70000054841693D
:1038000019B1006B18B100207047012070470220E9
:1038100070470000500000202DE9F0412D4F002698
:10382000386B40B1B869401CB861F86900B1012635
:103830003046BDE8F081FD686D1CFD6011D1786BEC
:10384000006828B140F6D91223A12AA0FCF784FD14
:10385000786BB96B7963B863386A401C3862FEF7DD
:1038600091FEB86ADFF89C80854209D3786B0068C6
:1038700080B1786BC068C468606885420DD2B86258
:103880003868C06A00EB800158F821000128CCD9C3
:103890000126CAE74FF0FF30F1E7201DFFF75AF885
:1038A000A06A18B104F11800FFF754F8E06A01218A
:1038B0003A6981401143396100EB800108EB8100D6
:1038C000211DFFF7F9F8E06A3968C96A8842CDD34B
:1038D0000126CBE7500000202E2E5C2E2E5C467277
:1038E000656552544F535C7372635C7461736B73A0
:1038F0002E6300004572726F723A25732C25640D99
:103900000A0000003411002070B504004FF00006DA
:103910003CD01F4D2868844205D040F6C7621DA1E7
:1039200023A0FCF719FDA06C28B940F6C96219A1C3
:103930001FA0FCF711FDA06C401EA064626CE16A40
:10394000914223D010BB201DFFF704F81C4901222F
:1039500050B9E06A00EB800351F8233023B92B699A
:1039600002FA00F083432B61606CE062C0F120003A
:10397000A061E06A2B6982401A432A6100EB800053
:1039800001EB8000211DFFF797F80126304670BD3E
:10399000500000202E2E5C2E2E5C4672656552541F
:1039A0004F535C7372635C7461736B732E630000BE
:1039B0004572726F723A25732C25640D0A0000005F
:1039C000341100202DE9F041C068C4682CB940F6DC
:1039D000613216A11CA0FCF7BFFC04F118000746D9
:1039E000FEF7B8FF1C4D286B012660B139461B4815
:1039F000FFF762F8E06A2968C96A884213D9012092
:103A0000EE61BDE8F081201DFEF7A4FFE06A2A699F
:103A100006FA00F111432961114900EB800001EB26
:103A20008000211DE4E70020EBE700002E2E5C2E35
:103A30002E5C4672656552544F535C7372635C74BE
:103A400061736B732E6300004572726F723A257357
:103A50002C25640D0A00000050000020DC1300201B
:103A6000341100202DE9F0472B4D00242746286B08
:103A700028B94FF4FD6229A12FA0FCF76DFCFFF7D8
:103A8000A5F8286B401E2863286BE8BBA8682E4960
:103A90000126C8B3A1F52A798846D8F80010E9B103
:103AA000D8F80C00C46804F11800FEF753FF201D7D
:103AB000FEF750FFE06A2A6906FA00F11143296116
:103AC00000EB800109EB8100211DFEF7F5FFE06AA4
:103AD0002968C96A8842E0D3EE61DEE70CB1FEF7DF
:103AE00051FDAC693CB1FFF797FE00B1EE61641E79
:103AF000F9D10020A861E86930B1144901273807DD
:103B00000860BFF34F8F00E001E0BFF36F8FFFF756
:103B100099F83846BDE8F087500000202E2E5C2E24
:103B20002E5C4672656552544F535C7372635C74CD
:103B300061736B732E6300004572726F723A257366
:103B40002C25640D0A000000DC13002004ED00E0C9
:103B50004FF04070E1EE100A704701030507090EAF
:103B600010121416181C1E00000400020001800030
:103B70004000200010000800040002000000008047
:103B80000040002000100008004000200010000845
:103B900000040002B43B000800000020B000000058
:103BA000E8010008643C0008B0000020C8190000CB
:103BB000040200080095BA0A00000000000000009E
:103BC00001020304060708090000000001020304C3
:103BD00001020304060708090000000000000000BD
:103BE000000000D000008000000000000000000085
:103BF0000000000000A00000000000000000000025
:103C000000000000000000000000000000000000B4
:103C100000000000000000000000000000000000A4
:103C20000000000000000000000000000000000094
:103C30000000000000000000000000000000000084
:103C400000000000AAAAAAAA0000000000000000CC
:103C50000000000000000000000000000000000064
:043C60000000000060
:04000005080001AD41
:00000001FF
