:020000040804EE
:10000000100F002015030408DF080408DB080408AB
:10001000DD080408B5060408ED110408000000001E
:100020000000000000000000000000005D02040865
:10003000B706040800000000B1020408B10F04086C
:100040002F0304082F0304082F0304082F030408B8
:100050002F0304082F0304082F0304082F030408A8
:100060002F0304082F0304082F0304082F03040898
:100070002F0304082F0304082F0304082F03040888
:100080002F0304082F0304082F0304082F03040878
:100090002F0304082F0304082F0304082F03040868
:1000A0002F0304082F0304082F0304082F03040858
:1000B0002F0304082F0304082F0304082F03040848
:1000C0002F0304082F0304082F0304082F03040838
:1000D0002F0304082F030408611004082F030408E9
:1000E0002F0304082F0304082F0304082F03040818
:1000F0002F0304082F0304082F0304082F03040808
:100100002F0304082F0304082F0304082F030408F7
:100110002F0304082F0304082F0304082F030408E7
:100120002F0304082F0304082F0304082F030408D7
:100130002F0304082F0304082F0304082F030408C7
:100140002F0304082F0304082F0304082F030408B7
:100150002F0304082F0304082F0304082F030408A7
:100160002F0304082F0304082F0304082F03040897
:100170002F0304082F0304082F0304082F03040887
:100180002F0304082F0304082F0304082F03040877
:100190002F0304082F0304082F0304082F03040867
:1001A0002F0304082F0304082F03040800F002F8AB
:1001B00000F044F80AA090E8000C82448344AAF1BD
:1001C0000107DA4501D100F039F8AFF2090EBAE8BB
:1001D0000F0013F0010F18BFFB1A43F0010318477B
:1001E000F41F000014200000103A24BF78C878C122
:1001F000FAD8520724BF30C830C144BF04680C602D
:10020000704700000023002400250026103A28BF74
:1002100078C1FBD8520728BF30C148BF0B60704778
:10022000642900F00381732900F0AB81002070473E
:100230001FB501F0C9FF1FBD10B510BD00F0D8F902
:100240001146FFF7F5FF00F0E5FF00F0F6F903B403
:10025000FFF7F2FF03BC00F0CAFF00002A4B196849
:100260000868B0E8F04F80F30988BFF36F8F4FF054
:10027000000080F311887047000000000648006805
:10028000006880F3088862B661B6BFF34F8FBFF392
:100290006F8F00DF00BF00BF08ED00E0DFF80C004B
:1002A000016841F470010160704700BF88ED00E013
:1002B000EFF30980BFF36F8F134B1A681EF0100F16
:1002C00008BF20ED108A20E9F04F106008B44FF00D
:1002D000500080F31188BFF34F8FBFF36F8F01F091
:1002E00009FD4FF0000080F3118808BC1968086808
:1002F000B0E8F04F1EF0100F08BFB0EC108A80F38A
:100300000988BFF36F8F704744000020EFF305802A
:10031000704700000948804709480047FEE7FEE7AC
:10032000FEE7FEE7FEE7FEE7FEE7FEE7FEE7FEE7A5
:1003300004480549054A064B70470000C50F0408EC
:10034000AD01040810090020100F0020100B002040
:10035000100B0020704700000FB4044910B503AA29
:10036000029800F013F910BC5DF814FB3C0000206B
:100370002DE9F0410E460446002020622046E16847
:10038000884730B3252805D0D4E901219047206A59
:10039000401CF2E7E168204600278847050018D096
:1003A000A5F14100192802D820354FF400673246E4
:1003B000294620462760FFF733FF40B1012804D0CB
:1003C000F61D26F007060836D8E7361DD6E728467C
:1003D000DAE7206ABDE8F08170B50C460546012ACF
:1003E00005D02878800600D5EA69002302E00123C1
:1003F00005E05B1C934202D2E05C0028F9D1A869B9
:10040000E618C01AA861286A184428622846AFF383
:10041000008004E0D5E9012114F8010B9047B442B3
:10042000F8D32846AFF3008070BD00002DE9F041FD
:100430000646002410687529314616A510D0AFF382
:100440000080002802DA404213A507E031688A07DD
:1004500001D512A502E0490704D511A5012401E048
:10046000AFF3008000210A2206F1240709E0B0FB67
:10047000F2FCB0FBF2F302FB1C003030785418465B
:10048000491C0028F3D123462A463046BDE8F041F6
:1004900000F00CB8000000002D0000002B00000050
:1004A0002000000070477047704770472DE9F04703
:1004B0000D4699469246044600F1240801688806D4
:1004C00004D5E06921F01001216000E00120A8427C
:1004D00001DD471B00E00027A1697A1902EB090042
:1004E000081AA0612078C00602D42046AFF300802D
:1004F000002608E0D4E901211AF806009047206A96
:10050000401C761C20624E45F4DB2078C0060AD5DC
:100510002046AFF3008006E0D4E901213020904767
:10052000206A401C2062381EA7F10107F4DC07E0B6
:10053000D4E9012118F805009047206A401C206288
:10054000281EA5F10105F3DC2046AFF300802078DA
:10055000000602D50220BDE8F0870120FBE710B5B8
:10056000436913B1AFF3008001E0FFF735FF0120CD
:1005700010BD127800F124010A7000224A70012295
:10058000EDE711684FF0FF32E9E70000074B70B567
:100590000D467B4400F011F80446284600F020F890
:1005A00010B14FF0FF3070BD204670BD5B0C0000F5
:1005B00001694A1C02610878704700B58FB0CDE927
:1005C00001310021059105497944CDE90310114617
:1005D0006846FFF7CDFE0FB000BD0000E5FFFFFF4E
:1005E000007B00F08000704700487047AC08002096
:1005F0007546FFF7F9FFAE4605006946534620F001
:100600000700854618B020B5FFF792FEBDE82040F0
:100610004FF000064FF000074FF000084FF0000BBE
:1006200021F00701AC46ACE8C009ACE8C009ACE871
:10063000C009ACE8C0098D46704710B50446AFF359
:1006400000802046BDE81040FFF701BE1CB501F058
:100650008FF90C490220CDE90001020200230AA112
:100660000C4801F089FC012802D10BA0FFF774FEB1
:100670000448001F006801F081FABDE81C4001F049
:10068000B3B9000028000020546573745F5461738F
:100690006B00000021100408B4B4BDA85465737445
:1006A0005F5461736BC8CECEF1B3C9B9A6210D0AF0
:1006B00000000000FEE7704700224FF020431028A2
:1006C0000AD0B0F5807F09D0B0F5805F09D0D3F8AB
:1006D0005801814309D107E0586EFAE7D3F8840046
:1006E000F7E7D3F8A400F4E7012210467047D0E9F9
:1006F0000012114382686FF01F03C06803EB4212BF
:1007000042EA402001434FF02040C0F850117047AA
:10071000F0B50668B100A1F1C041D1F84011CD0B90
:10072000D0E901121143D0E903231A43114342696E
:10073000046A11438269436A1143C269ED0311439C
:100740002143194329434FF02045EEB3D5F84061CA
:1007500022436FF30E0633431A43C5F84021026863
:100760009200A2F1C042C2F840116FF00F021301D3
:1007700014030168160441B38900A1F1C041D1F806
:10078000481101F0704C816AD1E9007E02EB0E1233
:100790007F1E17438A6803EB022217430A8A04EB81
:1007A00002421743D5F8482147EA0C0702F070438C
:1007B000CA68898A120306EB0151A2F580520A43E6
:1007C0001A43C5F8482101E007E009E0006880000D
:1007D000A0F1C040C0F84871F0BDC5F84011C4E7B1
:1007E000D5F84811806A01F07047D0E9001C02EB8F
:1007F0000C12491E1143826803EB022211430B4B7A
:10080000C26803EB02321143028A04EB0242114335
:10081000828A007E06EB025211431A0302EB00604B
:1008200001433943C5F84811F0BD000000F0FFFF57
:100830004FF02041D1F8542142EA4000C1F8540160
:100840007047F0B5002201274FF0030C0B6807FA40
:1008500002F52B40AB422CD1066853000CFA03F48E
:10086000A64306600E79D0F800E09E4046EA0E06E8
:1008700006600E79012E01D0022E12D18668A643A1
:1008800086604E79D0F808E09E4046EA0E06866003
:100890004668AE43466045688E799640B6B23543A9
:1008A0004560C568A543C560CC799C40C3681C43BE
:1008B000C460521C102AC9D3F0BD4B07DB0E9A400E
:1008C000C90810B500EB8100016A0F249C40A143C8
:1008D0000162016A1143016210BDFEE7FEE7704745
:1008E00030B50F23C27801780125FAB1144A126895
:1008F00001F1E02102F4E062C2F5E062C2F30722F6
:10090000C2F10404D3404278A24084781C401443CE
:10091000220181F80024007800F01F018D40400979
:10092000800000F1E020C0F8005130BD01F01F0050
:1009300085404809800000F1E020C0F8805130BDBA
:100940000CED00E0024908430249086070470000CE
:100950000000FA050CED00E0024A11400143024894
:100960000160704780FFFF1F08ED00E0044A002986
:10097000116801D0014300E081431160704700001D
:1009800030380240044A0029116801D0014300E0D8
:10099000814311607047000038380240044A002942
:1009A000116801D0014300E08143116070470000ED
:1009B00040380240044A0029116801D0014300E098
:1009C00081431160704700004438024070B5204BED
:1009D0001968204C11F00C0104D01F4E042903D0DB
:1009E000082903D004601BE0066019E0184A121FB2
:1009F0001168C1F38055116801F03F0115B1B6FBD4
:100A0000F1F101E0B4FBF1F114681268C4F3881449
:100A10006143C2F30142521C5200B1FBF2F101608A
:100A200019680F2202EA11110C4A545C0168E14076
:100A300041601C68072505EA9424145D21FA04F43A
:100A400084601B6805EA5333D25CD140C16070BD3D
:100A5000083802400024F40040787D011400002092
:100A60002DE9FC5F0121FC20FFF780FF02208DF8BB
:100A700004008DF8050000208DF806008DF80700B1
:100A8000012000906946D148FFF7DBFE0C220021CF
:100A9000CE48FFF712FF022000906946CB48FFF7CF
:100AA000D0FE0C220121C948FFF707FF0420009067
:100AB0006946C648FFF7C5FE0C220221C348FFF76E
:100AC000FCFE082000906946C048FFF7BAFE0C22E1
:100AD0000321BE48FFF7F1FE10266946BB48009689
:100AE000FFF7AFFE0C220421B848FFF7E6FE2027EF
:100AF0006946B6480097FFF7A4FE0C220521B348CB
:100B0000FFF7DBFE4FF480596946B048CDF80090FE
:100B1000FFF797FE0C221146AC48FFF7CEFE70029D
:100B200000906946A948FFF78CFE0C220D21A748CA
:100B3000FFF7C3FEB5026946A4480095FFF781FEA2
:100B40000C220E21A148FFF7B8FE6C0069469F48B1
:100B50000094FFF776FE0C220F219C48FFF7ADFEB4
:100B60000120009069469A48FFF76BFE0C22002195
:100B70009748FFF7A2FE0220009069469448FFF7CD
:100B800060FE0C2201219248FFF797FE69469048CB
:100B90000096FFF756FE0C2204218D48FFF78DFECC
:100BA00069468B480097FFF74CFE0C2205218848C8
:100BB000FFF783FE694687480095FFF742FE0C2247
:100BC0000E218448FFF779FE694682480094FFF7BA
:100BD00038FE0C220F217F48FFF76FFE01200090A6
:100BE00069467C48FFF72DFE0C2200217948FFF76B
:100BF00064FE0220009069467648FFF722FE0C2230
:100C000001217448FFF759FE4FF080086946724889
:100C1000CDF80080FFF715FE0C2207216E48FFF784
:100C20004CFEE61169466C480096FFF70AFE0C225E
:100C300008216948FFF741FE4FF4007A694666488B
:100C4000CDF800A0FFF7FDFD0C2209216248FFF757
:100C500034FE4FF4806B69465F48CDF800B0FFF773
:100C6000F0FD0C220A215C48FFF727FE2711694698
:100C700059480097FFF7E5FD0C220B215648FFF776
:100C80001CFE69465448CDF80090FFF7DAFD0C22AF
:100C900011465148FFF711FEA010009069464E48DA
:100CA000FFF7CFFD0C220D214B48FFF706FE6946EA
:100CB00049480095FFF7C5FD0C220E214648FFF775
:100CC000FCFD694644480094FFF7BBFD0C220F2150
:100CD0004148FFF7F2FD69463E480096FFF7B1FD37
:100CE0000C2208213B48FFF7E8FD69463948CDF85A
:100CF00000A0FFF7A6FD0C2209213648FFF7DDFD15
:100D000069463448CDF800B0FFF79BFD0C220A215C
:100D10003048FFF7D2FD4020304D0090694628460C
:100D2000FFF78FFD0C2206212846FFF7C6FD0120A4
:100D3000DFF8AC90009069464846FFF782FD0C2230
:100D400000214846FFF7B9FD694620480097FFF7A4
:100D500078FD0C220B211D48FFF7AFFD69461C48AA
:100D60000094FFF76EFD0C220F211948FFF7A5FD37
:100D7000694617480096FFF764FD0C2208211448C5
:100D8000FFF79BFD69462846CDF80080FFF759FD27
:100D90000C2207212846FFF790FD022000906946AB
:100DA0000D48FFF74EFD0C2201210B48FFF785FD92
:100DB0000120009069460848FFF743FD0C220021FE
:100DC0000548FFF77AFDBDE8FC9F000000140240D3
:100DD00000180240000C024000100240001C0240BB
:100DE0000008024000B593B0FFF73AFE0121084623
:100DF000FFF7C8FD0421022007220D91CDE90B0267
:100E0000CDE90E2010901190012000900020CDE936
:100E1000010110210391402104918900CDE90510C1
:100E2000C90007914900CDE908100BA80A9068464F
:100E3000FFF76EFC00F002F813B000BDF0B585B00E
:100E40000126082500240096CDE9015403942021B1
:100E50000120FFF731FC0028F9D16846FFF747FC75
:100E60000A201E480490401E0490FCD102270097DF
:100E7000CDE90154039420210120FFF71DFC002837
:100E8000F9D16846FFF733FC032003948DE8A100F5
:100E900020210120FFF710FC0028F9D16846FFF758
:100EA00026FC40F222200421CDE90260CDE90015A4
:100EB00020210120FFF700FC0028F9D16846FFF748
:100EC00016FC40F26A50FFF7B3FC20210120FFF727
:100ED000F3FB0028F9D105B0F0BD000040420F003F
:100EE0001CB500212E4A00910191106840F4803019
:100EF00010604FF4A043106800F400300190009897
:100F0000401C0090019810B900989842F3D11068E5
:100F1000800342D50120019021484030016841F012
:100F2000805101601F49086840F4404008601C4837
:100F3000083003680360036843F4004303600368F8
:100F400043F4A0530360041F174B2360136843F05E
:100F50008073136013689B01FCD50A6842F48032E9
:100F60000A604A68D203FCD50A6842F400320A607B
:100F70004A689203FCD50D4A40F205711160016880
:100F800021F003010160016841F002010160016884
:100F9000C1F381010229FAD11CBD01911CBD0000E1
:100FA0000038024000700040195A4007003C0240DF
:100FB00010B501F00DF8012803D0BDE8104000F095
:100FC000C5BF10BD124810B5016841F47001016041
:100FD0001048016841F0010101600E4A0021083209
:100FE000116002680C4B1A400260031D0B4A1A6024
:100FF000026822F48022026006480C300160FFF78C
:101000006FFF03494FF000608039086010BD000099
:1010100088ED00E000380240FFFFF6FE10300024AB
:1010200008A0FFF799F90D4E4FF480544FF4FA756C
:10103000B71E3480284600F067FD3C80284600F04B
:1010400063FDF6E73E3E2074657374207461736B34
:10105000207374617274310D0A0000001A0C024092
:1010600070B50C4D40F22551284600F02AF80028B2
:101070000FD0094C40F222512088884201D3002031
:101080002080284600F0AAF8044A21885054491CC0
:10109000218070BD0044004040000020A4000020DA
:1010A0000029818902D041F4005101E021F400516E
:1010B000818170470246002012880A4200D0012038
:1010C000704770B501F01F0501260024C1F34213DB
:1010D00006FA05F2012B0FD0022B0FD0838A4FEABC
:1010E00011210088134206FA01F600EA060001D039
:1010F00000B10124204670BD8389F0E7038AEEE742
:1011000010B5C1F3421301F01F040121A140012BCE
:1011100007D0022B07D01430002A026805D00A43FA
:1011200004E00C30F8E71030F6E78A43026010BDA7
:101130007FB50446008A0D46C98820F4405001431B
:101140002182A08941F20C618843A9882A89114330
:101150006A8902431143A181A08A20F44071A889C1
:101160000843A0826846FFF731FC1A48844202D047
:101170001948844201D1039800E00298A18909042A
:1011800000EBC00101EB0010296801D5490000E027
:101190008900B0FBF1F06422B0FBF2F109010B0908
:1011A0006FF018056B4300EB8300A3891D044FF01B
:1011B000320306D503EBC000B0FBF2F000F00700ED
:1011C00005E003EB0010B0FBF2F000F00F00084365
:1011D00020817FBD00100140001401408088C0F3D1
:1011E00008007047C1F3080181807047FEE770472F
:1011F00070B5074D0446C1B22846FFF7F3FF8021C2
:101200002846FFF757FF0028F9D0204670BD0000A0
:10121000001001401CB54FF480214802FFF79CFBF1
:101220004FF44070FFF78EFB00F0D6FA00F076FA2C
:10123000FFF7D8FD0D4800F01DFB00F0FBFD0CA0F2
:10124000FFF78AF8094901200839CDE90001420277
:1012500000230CA10F4800F08FFE012802D04FF0B0
:10126000FF301CBD00F0F4FCFEE700002C00002065
:101270003E3E2062737020696E6974206F6B0D0AA8
:10128000000000004170705461736B4372656174BB
:10129000650000004D0604082DE9F041184E0F4688
:1012A0000446F5683068001D00F026FA38B9306849
:1012B00090F82C1001208840316981433161601C15
:1012C00007D137B13168BDE8F0410E48091D00F083
:1012D000C5BA30682C44AC424460316805D2B06B6A
:1012E000BDE8F041091D00F0A1BA706B091D00F0C6
:1012F0009DFAB06A844200D2B462BDE8F081000079
:1013000044000020980800202DE9F041054600F037
:101310002FFB2D4EB068401CB06030682B4F10B1D1
:10132000706930B32BE03560B068012827D1002404
:1013300004EB840007EB800000F06AFA641C202CA8
:10134000F6D3234800F064FA2148143000F060FA24
:101350001F48283000F05CFA1D483C3000F058FA75
:101360001B48503000F054FA194870631430B063D1
:1013700005E03068E96AC06A884200D83560706A62
:101380000121401C7062E86A326981401143316179
:1013900000EB800007EB8000291D00F05FFA00F0F1
:1013A00023FB706900280CD03068E96AC06A884263
:1013B00007D208494FF080500860BFF34F8FBFF34A
:1013C0006F8FBDE8F081000044000020C8050020B8
:1013D0004808002004ED00E070B5124E124D1CE0EC
:1013E00000F080FC306820B1002400F077FEA4B942
:1013F00001E00124F9E700F0BBFAF068C468201DA1
:1014000000F07AF9A868401EA8606868401E68600D
:1014100000F0EAFA204600F009F868680028DFD1F9
:1014200070BD0000840800204400002010B5044670
:10143000006B00F00BFB2046BDE8104000F006BB3F
:10144000074E4FF08054074DFFF7C6FF3068012864
:10145000FAD92C60BFF34F8FBFF36F8FF4E7000012
:10146000C805002004ED00E02DE9F047DDE909841E
:101470000E4682466FF00301206B01EB82010844A7
:10148000089D20F007079946780705D040F22B32D7
:1014900019A120A0FEF760FF00202218315C82F81D
:1014A0003410315C11B1401C1028F6D3002684F8AA
:1014B0004360202D00D31F25E562C4E91156201D8D
:1014C00000F0B1F904F1180000F0ADF92461C5F1A4
:1014D00020006462A061E66484F850604A46514688
:1014E000384600F0F3F82060B8F1000F01D0C8F8DA
:1014F0000040BDE8F08700002E2E5C2E2E5C467268
:10150000656552544F535C7372635C7461736B73A3
:101510002E6300004572726F723A25732C25640D9C
:101520000A00000030B5114900E011460A68824205
:10153000FBD34B685C18844203D140681844486070
:10154000084643681C18944209D1084C103C246892
:10155000A24209D052681A4442600A6812680260C6
:10156000814200D0086030BD0460F9E79C00002093
:101570000648416B096829B1416BC968C968496867
:10158000816270474FF0FF31FAE70000440000200D
:1015900008484068401C05D040F20F1206A111A077
:1015A000FEF7DAFE502080F31188BFF34F8FBFF3B0
:1015B0006F8FFEE7800000202E2E5C2E2E5C467280
:1015C000656552544F535C706F72745C525644534D
:1015D0005C41524D5F434D34465C706F72742E63B4
:1015E000000000004572726F723A25732C25640D5D
:1015F0000A0000002DE9F041254F05460026386815
:1016000020B9B52223A12DA0FEF7A6FE00F06AFBAB
:10161000F868054236D1ADB30835680704D005F047
:101620000700C0F10800054465B37868854229D8F1
:10163000174910310846046801E0214604466068F5
:10164000A84202D220680028F7D13868844219D015
:101650000E682068086060680836411B102904D9AC
:10166000601941606560FFF75DFF61687868401A46
:101670007860BA68904200D2B860F86801430020F0
:10168000C4E9000100F02AFD3046BDE8F081000009
:101690008C0000202E2E5C2E2E5C46726565525406
:1016A0004F535C706F72745C4D656D4D616E675C1D
:1016B000686561705F352E63000000004572726FCF
:1016C000723A25732C25640D0A00000010B5031F23
:1016D0004FF080741C601B1F21F001011960191F5D
:1016E000044B0B6014390A60091F6FF00202443882
:1016F0000A6010BD91150408D0E9013201699A60B1
:10170000D0E901235A604A68824201D182684A6066
:10171000002202610868401E08607047F0B5012190
:1017200087B00846FFF722F901211020FFF742F9A0
:10173000022500248DF8064001268DF80760280256
:10174000234F8DF8055000908DF8045069463846B7
:10175000FFF777F8680200908DF804506946384624
:10176000FFF76FF807220A213846FFF7A6F807228D
:1017700009213846FFF7A1F84FF4E130ADF80C40ED
:101780000290ADF80E40ADF81040ADF814400C20BA
:10179000104CADF8120002A92046FFF7C9FC252025
:1017A0008DF818008DF819508DF81A608DF81B60AF
:1017B00006A8FFF795F8012240F225512046FFF7D1
:1017C0009FFC01212046FFF76BFC07B0F0BD000035
:1017D00000000240001001401CB501210820FFF765
:1017E000C5F801208DF8040000218DF806108DF851
:1017F00007004FF480548DF80510009469460348A3
:10180000FFF71FF80148183004801CBD000C02408F
:1018100000F108014FF0FF32C0E90112C16001611F
:1018200000210160704700210161704730B50C68EC
:10183000621C02D000F1080202E0026904E01A46CC
:1018400053681D68A542FAD953684B6099608A6055
:10185000516008610168491C016030BD42684A60FE
:1018600093688B6093685960916008610168491CB6
:10187000016070472DE9F0472E4C81460026206814
:10188000354628B140F2BD122BA135A0FEF764FD0C
:1018900048464FF0000AA04638E004682046610739
:1018A00004D0C41D24F00704201A3F1A1DB1D8F833
:1018B000000028B10AE01F481030C0E9004A0FE0DC
:1018C0004FF4EF721CA126A0FEF746FDD8F80010D9
:1018D0008C4205D840F2E11217A121A0FEF73CFD91
:1018E000E019083820F00700D8F80010C8F8000008
:1018F000C0F804A0021BC0F800A0C4E9000201B1B6
:101900000C6060686D1C064409EBC5004768002F39
:10191000C3D1C8F808604446C8F804602EB940F244
:101920000A2205A10EA0FEF717FD4FF00040E0606F
:10193000BDE8F0878C0000202E2E5C2E2E5C4672B7
:10194000656552544F535C706F72745C4D656D4D9C
:10195000616E675C686561705F352E630000000032
:101960004572726F723A25732C25640D0A000000CF
:10197000502080F31188BFF34F8FBFF36F8F094959
:101980004868401C486001280AD10748006810F0E8
:10199000FF0F05D040F2B91204A10FA0FEF7DCBC86
:1019A000704700008000002004ED00E02E2E5C2E29
:1019B0002E5C4672656552544F535C706F72745C56
:1019C000525644535C41524D5F434D34465C706FF8
:1019D00072742E63000000004572726F723A2573B4
:1019E0002C25640D0A00000010B5084C606828B969
:1019F0004FF4E07206A111A0FEF7AEFC6068401E35
:101A0000606001D180F3118810BD000080000020CB
:101A10002E2E5C2E2E5C4672656552544F535C70C0
:101A20006F72745C525644535C41524D5F434D3467
:101A3000465C706F72742E63000000004572726F16
:101A4000723A25732C25640D0A00000070B5002839
:101A50002AD0164DA0F108046068E968084205D153
:101A600040F2491212A11CA0FEF776FC206828B1B2
:101A70004FF4A5720EA118A0FEF76EFC6068E9682D
:101A8000084211D02268002A0ED18843606000F01D
:101A900029F960686968084468602046FFF742FDDC
:101AA000BDE8704000F01ABB70BD00008C00002043
:101AB0002E2E5C2E2E5C4672656552544F535C7020
:101AC0006F72745C4D656D4D616E675C68656170C9
:101AD0005F352E63000000004572726F723A257305
:101AE0002C25640D0A00000006484FF47A71006846
:101AF000B0FBF1F14FF0E020491E41610721016187
:101B0000704700000000002010B5040012D00E49FC
:101B1000096B29B140F2CF420CA113A0FEF71CFCC7
:101B200000F0E0F800212046FFF7B6FB00F0D6FAFF
:101B3000002807D110494FF080500860BFF34F8F45
:101B4000BFF36F8F10BD0000440000202E2E5C2ECE
:101B50002E5C4672656552544F535C7372635C74BD
:101B600061736B732E6300004572726F723A257356
:101B70002C25640D0A00000004ED00E070B5044659
:101B8000FFF7F6FE234D04B92C68201DFFF7B4FDC6
:101B900058B9E06A204A00EB800152F8211021B9BF
:101BA00001218140286988432861A06A18B104F1A5
:101BB0001800FFF7A1FD686A401C6862286884422B
:101BC00007D1211D1548FFF749FE6868401C686071
:101BD00007E0A868401EA8602046FFF727FCFFF733
:101BE000C7FCFFF701FF6869002812D0286884420B
:101BF0000FD1286B28B140F2654209A10FA0FEF772
:101C0000ABFB12494FF080500860BFF34F8FBFF31A
:101C10006F8F70BD44000020C8050020840800209C
:101C20002E2E5C2E2E5C4672656552544F535C73AB
:101C300072635C7461736B732E6300004572726F24
:101C4000723A25732C25640D0A00000004ED00E0B3
:101C50001CB515480024CDE900402346802213A17D
:101C6000144800F089F901280AD0401C1BD102B0A9
:101C700040F28472BDE810400FA116A0FEF76CBBC5
:101C8000502080F31188BFF34F8FBFF36F8F06484A
:101C90004FF0FF312C38816201214161C460BDE801
:101CA0001C4000F0C9B81CBD7000002049444C45E0
:101CB00000000000411404082E2E5C2E2E5C46729B
:101CC000656552544F535C7372635C7461736B73DC
:101CD0002E6300004572726F723A25732C25640DD5
:101CE0000A0000000248016B491C016370470000B4
:101CF0004400002070B5134D286B10B10120E8613D
:101D000070BD0020E86128690F4EB0FA80F0C0F184
:101D10001F0000EB800456F8240028B940F6F62294
:101D20000AA111A0FEF718FB06EB840000F10802DF
:101D3000416849684160914201D149684160C86881
:101D4000286070BD44000020C80500202E2E5C2EA7
:101D50002E5C4672656552544F535C7372635C74BB
:101D600061736B732E6300004572726F723A257354
:101D70002C25640D0A000000F0B5012187B008464B
:101D8000FEF7F4FD01214804FEF708FE00248DF85B
:101D9000064001268DF8076002250420234F8DF8A8
:101DA000055000908DF8045069463846FEF749FD0D
:101DB000082000908DF8045069463846FEF741FD32
:101DC000072203213846FEF778FD07220221384614
:101DD000FEF773FD4FF4E1300290ADF810400C2097
:101DE000134FADF80C40ADF81200ADF80E40ADF851
:101DF000144002A93846FFF79BF926208DF81800F9
:101E00008DF819508DF81A408DF81B6006A8FEF762
:101E100067FD012240F225513846FFF771F9012193
:101E20003846FFF73DF907B0F0BD00000000024062
:101E300000440040FFF7A0BF1CB5304C206830497B
:101E4000884205D140F259122EA139A0FEF784FA3A
:101E500020682B49491E884205D14FF4AD7229A153
:101E600033A0FEF779FA364C20780190FF202070DD
:101E700020788DF800009DF800009DF8001000F01B
:101E8000F000884205D040F273121EA128A0FEF790
:101E900063FA9DF800002B4A00F0500010700720F4
:101EA000906007E09068401E90609DF80000400040
:101EB0008DF800009DF800000006F3D4107A0002AF
:101EC00000F4E0609060019820700C4820300168B8
:101ED00041F470010160016841F070410160FFF759
:101EE00003FE00205060FEF7D9F91748016841F061
:101EF00040410160FEF7C2F900201CBD00ED00E08A
:101F000071C20F412E2E5C2E2E5C467265655254B6
:101F10004F535C706F72745C525644535C41524D27
:101F20005F434D34465C706F72742E630000000096
:101F30004572726F723A25732C25640D0A000000F9
:101F400000E400E08000002034EF00E010B55020F5
:101F500080F31188BFF34F8FBFF36F8F00F046F807
:101F600018B104494FF080500860002080F31188B8
:101F700010BD000004ED00E02DE9FF5F8346DDE9C0
:101F80000E87994616468A469000FFF733FB0500F8
:101F90001AD05420FFF72EFB040012D02563002135
:101FA000CDE90241CDE900874B46324651465846BD
:101FB000FFF75AFA2046FFF7A7F9012004B0BDE861
:101FC000F09F2846FFF742FD4FF0FF30F6E7000094
:101FD0000548416919B1006B18B100207047012014
:101FE0007047022070470000440000202DE9F041B6
:101FF0002D4F0026386B40B1B869401CB861F869B4
:1020000000B101263046BDE8F081FD686D1CFD6021
:1020100011D1786B006828B140F6D91223A12AA00B
:10202000FEF79AF9786BB96B7963B863386A401C2C
:102030003862FFF79DFAB86ADFF89C80854209D3C1
:10204000786B006880B1786BC068C468606885424E
:102050000DD2B8623868C06A00EB800158F82100E0
:102060000128CCD90126CAE74FF0FF30F1E7201D47
:10207000FFF742FBA06A18B104F11800FFF73CFB20
:10208000E06A01213A6981401143396100EB800126
:1020900008EB8100211DFFF7E1FBE06A3968C96A9E
:1020A0008842CDD30126CBE7440000202E2E5C2EA3
:1020B0002E5C4672656552544F535C7372635C7458
:1020C00061736B732E6300004572726F723A2573F1
:1020D0002C25640D0A000000C80500202DE9F047FA
:1020E0002B4D00242746286B28B94FF4FD6229A107
:1020F0002FA0FEF731F9FFF73BFC286B401E286349
:10210000286BE8BBA8682E490126C8B3A1F52A7937
:102110008846D8F80010E9B1D8F80C00C46804F17A
:102120001800FFF7E9FA201DFFF7E6FAE06A2A69CE
:1021300006FA00F11143296100EB800109EB8100EF
:10214000211DFFF78BFBE06A2968C96A8842E0D34A
:10215000EE61DEE70CB1FFF70BFAAC693CB1FFF7BB
:1021600045FF00B1EE61641EF9D10020A861E86965
:1021700030B11449012738070860BFF34F8F00E0E2
:1021800001E0BFF36F8FFFF72FFC3846BDE8F08703
:10219000440000202E2E5C2E2E5C46726565525443
:1021A0004F535C7372635C7461736B732E630000D6
:1021B0004572726F723A25732C25640D0A00000077
:1021C0007008002004ED00E04FF04070E1EE100ACE
:1021D00070470000F421040800000020A400000063
:1021E000E801040898220408A40000206C0E0000F6
:1021F000040204080095BA0A000000000000000074
:10220000010203040607080900000000010203049C
:102210000102030406070809000000000000000096
:10222000000000D00000700000000000000000006E
:10223000000000000000000000000000000000009E
:10224000000000000000000000000000000000008E
:10225000000000000000000000000000000000007E
:10226000000000000000000000000000000000006E
:102270000000000000000000AAAAAAAA00000000B6
:10228000000000000000000000000000000000004E
:08229000000000000000000046
:04000005080401AD3D
:00000001FF
