:020000040800F2
:10000000201000202D030008FF100008FB1000083E
:10001000FD100008D50E00084D1B00080000000070
:100020000000000000000000000000007502000851
:10003000D70E000800000000C9020008DD18000803
:100040004703000847030008470300084703000868
:100050004703000847030008470300084703000858
:100060004703000847030008470300084703000848
:100070004703000847030008470300084703000838
:100080004703000847030008470300084703000828
:100090004703000847030008470300084703000818
:1000A0004703000847030008470300084703000808
:1000B00047030008470300084703000847030008F8
:1000C00047030008470300084703000847030008E8
:1000D0004703000847030008C11900084703000848
:1000E00047030008470300084703000847030008C8
:1000F00047030008470300084703000847030008B8
:1001000047030008470300084703000847030008A7
:100110004703000847030008470300084703000897
:100120004703000847030008470300084703000887
:100130004703000847030008470300084703000877
:100140004703000847030008470300084703000867
:100150004703000847030008470300084703000857
:100160004703000847030008470300084703000847
:100170004703000847030008470300084703000837
:100180004703000847030008470300084703000827
:100190004703000847030008470300084703000817
:1001A00047030008470300084703000800F002F86F
:1001B00000F050F80AA090E8000C82448344AAF1B1
:1001C0000107DA4501D100F045F8AFF2090EBAE8AF
:1001D0000F0013F0010F18BFFB1A43F0010318477B
:1001E000D42C0000F42C0000103A24BF78C878C149
:1001F000FAD8520724BF30C830C144BF04680C602D
:10020000704700000023002400250026103A28BF74
:1002100078C1FBD8520728BF30C148BF0B60704778
:10022000642900F00F81782900F04881732900F0DB
:100230000B83002070471FB502F022FE00F0D2FDB4
:1002400004000020002102F005FE401C60601FBD7C
:1002500010B510BD00F08AFD1146FFF7ECFF01F06C
:1002600089FC00F0B1FD03B4FFF7F2FF03BC01F01D
:100270006EFC00002A4B19680868B0E8F04F80F364
:100280000988BFF36F8F4FF0000080F3118870472B
:100290000000000006480068006880F3088862B625
:1002A00061B6BFF34F8FBFF36F8F00DF00BF00BF9A
:1002B00008ED00E0DFF80C00016841F47001016016
:1002C000704700BF88ED00E0EFF30980BFF36F8F48
:1002D000134B1A681EF0100F08BF20ED108A20E99A
:1002E000F04F106008B44FF0500080F31188BFF356
:1002F0004F8FBFF36F8F02F06BFA4FF0000080F367
:10030000118808BC19680868B0E8F04F1EF0100F9B
:1003100008BFB0EC108A80F30988BFF36F8F704775
:1003200054000020EFF30580704700000948804723
:1003300009480047FEE7FEE7FEE7FEE7FEE7FEE7C7
:10034000FEE7FEE7FEE7FEE704480549054A064BDF
:1003500070470000F1180008AD010008200A0020D5
:1003600020100020200C0020200C002070470000EE
:100370000FB4044910B503AA029800F069FA10BC42
:100380005DF814FB3C0000202DE9F0410E460446C8
:10039000002020622046E168884730B3252805D038
:1003A000D4E901219047206A401CF2E7E168204629
:1003B00000278847050018D0A5F14100192802D868
:1003C00020354FF400673246294620462760FFF764
:1003D00027FF40B1012804D0F61D26F00706083695
:1003E000D8E7361DD6E72846DAE7206ABDE8F0816F
:1003F00070B50C460546012A05D02878800600D540
:10040000EA69002302E0012305E05B1C934202D26B
:10041000E05C0028F9D1A869E618C01AA861286A2A
:10042000184428622846AFF3008004E0D5E9012192
:1004300014F8010B9047B442F8D32846AFF300807C
:1004400070BD00002DE9F0410646002410687529B2
:10045000314616A510D0AFF30080002802DA4042E2
:1004600013A507E031688A0701D512A502E0490704
:1004700004D511A5012401E0AFF3008000210A2278
:1004800006F1240709E0B0FBF2FCB0FBF2F302FB3B
:100490001C00303078541846491C0028F3D12346FC
:1004A0002A463046BDE8F04100F063B90000000084
:1004B0002D0000002B0000002000000070B5044655
:1004C0000D4621461068AFF300802188090502D54A
:1004D0000F4A7A4402E00E4A7A440E32002104F1B7
:1004E000240305E000F00F060009965D5E54491CE8
:1004F0000028F7D120780023000704D5702D02D002
:1005000009B1022311322046BDE8704000F031B934
:10051000B42900000FB400B58DB010A90990009166
:100520000B904FF0FF300A9000200C900648784462
:100530000690064878446A4607900F9909A800F08B
:10054000ADF90DB05DF814FB8B030000A3030000B0
:100550002DE9FF5F1D464FF0FF3B91464FF000082D
:100560005F46D5E90146A96901987F1C8847296A39
:10057000824688470028F6D1BAF1FF3F0CD0002E02
:1005800024F4C06419DD600614D5BAF12B0F09D02C
:10059000BAF12D0F0ED103E0584604B0BDE8F09F2C
:1005A00044F48064A96901987F1C8847761E8246BE
:1005B000002E02DDBAF1300F03D0B9F1000F26D0C2
:1005C00032E0A969761E01987F1C44F400748847C4
:1005D000002E824605DDBAF1780F06D0BAF1580F29
:1005E00003D0B9F1000F10D01EE0B9F1000F02D016
:1005F000B9F1100F18D1A969761E01987F1C24F457
:10060000007488478246102002E0082000E00A209B
:10061000814609E0A96908FB0908761E01987F1C3C
:1006200044F4007488478246002E05DD4946504652
:1006300000F020F90028EDDAE96901988847A00563
:1006400002D46FF00100A8E7E00725D1600613D5BA
:10065000600502D5C8F1000000E0404629680A1D87
:100660002A600968220501D5087015E0220701D526
:10067000088011E008600FE02868011D296000680B
:10068000210502D580F8008006E0210702D5A0F8F8
:10069000008001E0C0F8008038467EE7032A40F27F
:1006A000308010F0030C00F0158011F8013BBCF114
:1006B000020F624498BF11F801CB00F8013B38BF2C
:1006C00011F8013BA2F1040298BF00F801CB38BF3A
:1006D00000F8013B11F0030300F01081083AC0F06C
:1006E000088051F8043B083A51F804CBA0E8081000
:1006F000F5E7121D5CBF51F8043B40F8043BAFF333
:100700000080D20724BF11F8013B11F801CB48BF8C
:1007100011F8012B24BF00F8013B00F801CB48BFC2
:1007200000F8012B70474FF000020429C0F012803E
:1007300010F0030C00F01681CCF1040CBCF1020F98
:1007400018BF00F8012BA8BF20F8022BA1EB0C0169
:1007500000F008B95FEAC17C24BF00F8012B00F863
:10076000012B48BF00F8012B704770477047704756
:1007700070472DE9F0470D4699469246044600F130
:1007800024080168880604D5E06921F01001216081
:1007900000E00120A84201DD471B00E00027A1691D
:1007A0007A1902EB0900081AA0612078C00602D469
:1007B0002046AFF30080002608E0D4E901211AF8B2
:1007C00006009047206A401C761C20624E45F4DBF0
:1007D0002078C0060AD52046AFF3008006E0D4E9B1
:1007E000012130209047206A401C2062381EA7F16A
:1007F0000107F4DC07E0D4E9012118F8050090476F
:10080000206A401C2062281EA5F10105F3DC204669
:10081000AFF300802078000602D50220BDE8F08703
:100820000120FBE710B5436913B1AFF3008001E08D
:10083000FFF7DEFD012010BD127800F124010A70DF
:1008400000224A700122EDE711684FF0FF32E9E71C
:10085000074B70B50D467B4400F0B7F804462846B8
:1008600000F080FA10B14FF0FF3070BD204670BD2F
:10087000F71200003A2800D2303820F02002412A36
:1008800001D3A2F13700884201D34FF0FF30704707
:10089000026811441378016018467047D160054919
:1008A0007944516104497944116200211161114672
:1008B00000F09EB8EDFFFFFF05010000426842B165
:1008C000016811F8013B23B1521EC0E9001218461D
:1008D00070470121C160881E704742685AB1C368E1
:1008E000016843B983688B4205D0491E521CC0E998
:1008F0000012002070474FF0FF30704710B5203ACB
:10090000C0F00B80B1E81850203AA0E81850B1E8C8
:100910001850A0E81850BFF4F5AF5FEA027C24BF7E
:10092000B1E81850A0E8185044BF18C918C0BDE875
:1009300010405FEA827C24BF51F8043B40F8043B3E
:1009400008BF7047D20728BF31F8023B48BF11F8F3
:10095000012B28BF20F8023B48BF00F8012B70474D
:100960004FF0000200B5134694469646203922BF48
:10097000A0E80C50A0E80C50B1F12001BFF4F7AF93
:10098000090728BFA0E80C5048BF0CC05DF804EB75
:10099000890028BF40F8042B08BF704748BF20F8E3
:1009A000022B11F0804F18BF00F8012B704710B5D3
:1009B000044600F001FA0068005D00F0010010BD7F
:1009C00001694A1C02610878704700B58FB0CDE913
:1009D00001310021059105497944CDE90310114603
:1009E0006846FFF7D1FC0FB000BD0000E5FFFFFF38
:1009F0002DE9F34F4FF0000A0C4656468DB001200A
:100A00000C9001F10C000B9062690B98012190474A
:100A1000051E2DD0252D2CD0216A8847C0B16269D2
:100A20000B9801219047216A88470028F7D1626915
:100A3000411E0B98904700E0761CA1690D988847ED
:100A4000216A88470028F7D1E1690D988847DBE7DC
:100A5000A1690D988847A842074601D1761CD3E7C3
:100A6000E1690D9888477F1C02D1BAF1000F6FD061
:100A70006BE162690B9800273D46394690472A286A
:100A800004D162690B98012190470125DFF8D082DB
:100A900062690B9801219047A0F130010A290AD21E
:100AA0004745E5DC07EB870100EB4107303FDFD42A
:100AB00045F01005ECE7E90601D46FF000476C281B
:100AC0000AD04C2814D0682815D06A280DD0742874
:100AD0001CD07A281AD01DE062690B98012190473A
:100AE0006C2802D045F0040514E045F002050DE045
:100AF00045F020050AE062690B98012190476828BB
:100B000002D045F0080505E045F4006562690B98E0
:100B100001219047C4E9015765283DD019DC5828C8
:100B20007AD00CDC452837D004DC252826D0412893
:100B30009ED131E046282FD0472899D12CE05B2860
:100B400077D0612828D063287CD0642823D15AE04C
:100B5000F6E06F2848D008DC66281DD067281BD037
:100B6000692821D06E2816D127E0702845D0732837
:100B700068D0752847D078280DD14DE0A1690D982F
:100B80008847252805463FF469AFE1690D988847F5
:100B90006D1C3FF46AAFD8E00D9923466A466FF0AA
:100BA0000100AFF30080C5E045F0400023464FF060
:100BB00000026060A80736D43EE0E8077FF447AF44
:100BC0002068011D21600068290501D506701BE71A
:100BD000290701D5068017E7A90703D5F117C0E952
:100BE000006111E706600FE745F0400023464FF033
:100BF00008026060A80716D41EE040F60E0125EA40
:100C00000100606016E045F0400023464FF00A0204
:100C10006060A80707D40FE045F040006060A807B7
:100C200008D5234610220D996FF00100AFF3008024
:100C300080E007E0102223460D996FF00100FFF7D6
:100C400087FC77E04FF0000963284F46C8464B46C3
:100C5000CB4602D05B2806D038E0E80601D401205C
:100C6000A060012732E06269D4F80CB00B98012132
:100C700090475E2807D14FF0010949466269D4F8D0
:100C80000CB00B989047216939B900210A4603AB93
:100C900043F82120491C0829FADBD8B3216949B35C
:100CA00008F1010862690B98012190475D28F4D191
:100CB000B9F1000F09D0002003A951F82020D24338
:100CC00041F82020401C0828F7DB03AB20690028EE
:100CD00020794FEA40701ED05B462246CDF8008056
:100CE000CDE901970D9900286FF0010020DAAFF3EC
:100CF00000801FE0C11703AA00EBD1614B1121F066
:100D00001F0102EB8302411A13680120884003434C
:100D10001360C7E719E00D99224600286FF0010023
:100D2000009702DAAFF3008004E0AFF3008001E047
:100D3000AFF3008000280ADA401C06D10C9820B1DD
:100D40004FF0FF300FB0BDE8F08F5046FAE7E907EB
:100D500001D10AF1010A064400200C9054E600007B
:100D6000CCCCCC0C007B00F080007047754600F0C6
:100D700035F8AE4605006946534620F00700854623
:100D800018B020B5FFF7E0FABDE820404FF00006AC
:100D90004FF000074FF000084FF0000B21F0070163
:100DA000AC46ACE8C009ACE8C009ACE8C009ACE8A6
:100DB000C0098D467047000010B500F013F8001D03
:100DC00010BD00BF9120000010B50446AFF30080B5
:100DD0002046BDE81040FFF746BA000000487047C3
:100DE000BC09002000487047DC0900204FF0013C9E
:100DF00050F8042B51F8043B9A4221D1A2EB0C038A
:100E0000934313EACC1317D150F8042B51F8043B49
:100E10009A4215D1A2EB0C03934313EACC130BD1E6
:100E200050F8042B51F8043B9A4209D1A2EB0C0371
:100E3000934313EACC13DBD04FF00000704700BFA0
:100E4000D01A01BAB1FA81F101F0180122FA01F0C9
:100E5000CB40C1F12001DBB2C0B2C01A2CFA01F3C1
:100E6000D11A914311EAC311E6D170471CB501F0C4
:100E7000EDFA0C490220CDE90001020200230AA18B
:100E80000C4801F0BFFE012802D10BA0FFF770FA59
:100E90000448001F006801F0DFFBBDE81C4001F0C2
:100EA00011BB000028000020546573745F54617307
:100EB0006B0000004D190008B4B4BDA854657374EC
:100EC0005F5461736BC8CECEF1B3C9B9A6210D0AC8
:100ED00000000000FEE7704700224FF0204310287A
:100EE0000AD0B0F5807F09D0B0F5805F09D0D3F883
:100EF0005801814309D107E0586EFAE7D3F884001E
:100F0000F7E7D3F8A400F4E7012210467047D0E9D0
:100F10000012114382686FF01F03C06803EB421296
:100F200042EA402001434FF02040C0F85011704782
:100F3000F0B50668B100A1F1C041D1F84011CD0B68
:100F4000D0E901121143D0E903231A431143426946
:100F5000046A11438269436A1143C269ED03114374
:100F60002143194329434FF02045EEB3D5F84061A2
:100F700022436FF30E0633431A43C5F8402102683B
:100F80009200A2F1C042C2F840116FF00F021301AB
:100F900014030168160441B38900A1F1C041D1F8DE
:100FA000481101F0704C816AD1E9007E02EB0E120B
:100FB0007F1E17438A6803EB022217430A8A04EB59
:100FC00002421743D5F8482147EA0C0702F0704364
:100FD000CA68898A120306EB0151A2F580520A43BE
:100FE0001A43C5F8482101E007E009E000688000E5
:100FF000A0F1C040C0F84871F0BDC5F84011C4E789
:10100000D5F84811806A01F07047D0E9001C02EB66
:101010000C12491E1143826803EB022211430B4B51
:10102000C26803EB02321143028A04EB024211430D
:10103000828A007E06EB025211431A0302EB006023
:1010400001433943C5F84811F0BD000000F0FFFF2F
:101050004FF02041D1F8542142EA4000C1F8540138
:101060007047F0B5002201274FF0030C0B6807FA18
:1010700002F52B40AB422CD1066853000CFA03F466
:10108000A64306600E79D0F800E09E4046EA0E06C0
:1010900006600E79012E01D0022E12D18668A64379
:1010A00086604E79D0F808E09E4046EA0E068660DB
:1010B0004668AE43466045688E799640B6B2354381
:1010C0004560C568A543C560CC799C40C3681C4396
:1010D000C460521C102AC9D3F0BD4B07DB0E9A40E6
:1010E000C90810B500EB8100016A0F249C40A143A0
:1010F0000162016A1143016210BDFEE7FEE770471D
:1011000030B50F23C27801780125FAB1144A12686C
:1011100001F1E02102F4E062C2F5E062C2F30722CD
:10112000C2F10404D3404278A24084781C401443A6
:10113000220181F80024007800F01F018D40400951
:10114000800000F1E020C0F8005130BD01F01F0028
:1011500085404809800000F1E020C0F8805130BD92
:101160000CED00E0024908430249086070470000A6
:101170000000FA050CED00E0044A0029116801D0D6
:10118000014300E0814311607047000030380240A5
:10119000044A0029116801D0014300E08143116035
:1011A0007047000038380240044A0029116801D015
:1011B000014300E081431160704700004038024065
:1011C000044A0029116801D0014300E08143116005
:1011D000704700004438024070B5204B1968204C1D
:1011E00011F00C0104D01F4E042903D0082903D0AC
:1011F00004601BE0066019E0184A121F1168C1F371
:101200008055116801F03F0115B1B6FBF1F101E025
:10121000B4FBF1F114681268C4F388146143C2F39B
:101220000142521C5200B1FBF2F1016019680F2219
:1012300002EA11110C4A545C0168E14041601C68EB
:10124000072505EA9424145D21FA04F484601B68E0
:1012500005EA5333D25CD140C16070BD083802400A
:101260000024F40040787D01140000202DE9FC5F8B
:101270000121FC20FFF780FF02208DF804008DF88B
:10128000050000208DF806008DF807000120009071
:101290006946D148FFF7E5FE0C220021CE48FFF752
:1012A0001CFF022000906946CB48FFF7DAFE0C22B3
:1012B0000121C948FFF711FF042000906946C64884
:1012C000FFF7CFFE0C220221C348FFF706FF0820DC
:1012D00000906946C048FFF7C4FE0C220321BE48B7
:1012E000FFF7FBFE10266946BB480096FFF7B9FEE4
:1012F0000C220421B848FFF7F0FE20276946B648C3
:101300000097FFF7AEFE0C220521B348FFF7E5FE7C
:101310004FF480596946B048CDF80090FFF7A1FE20
:101320000C221146AC48FFF7D8FE700200906946C7
:10133000A948FFF796FE0C220D21A748FFF7CDFE26
:10134000B5026946A4480095FFF78BFE0C220E21DA
:10135000A148FFF7C2FE6C0069469F480094FFF762
:1013600080FE0C220F219C48FFF7B7FE0120009061
:1013700069469A48FFF775FE0C2200219748FFF74F
:10138000ACFE0220009069469448FFF76AFE0C22EA
:1013900001219248FFF7A1FE694690480096FFF7A9
:1013A00060FE0C2204218D48FFF797FE69468B48AA
:1013B0000097FFF756FE0C2205218848FFF78DFEA7
:1013C000694687480095FFF74CFE0C220E218448A1
:1013D000FFF783FE694682480094FFF742FE0C2225
:1013E0000F217F48FFF779FE0120009069467C4875
:1013F000FFF737FE0C2200217948FFF76EFE02202E
:10140000009069467648FFF72CFE0C2201217448B3
:10141000FFF763FE4FF0800869467248CDF8008000
:10142000FFF71FFE0C2207216E48FFF756FEE6115C
:1014300069466C480096FFF714FE0C2208216948A3
:10144000FFF74BFE4FF4007A69466648CDF800A0DE
:10145000FFF707FE0C2209216248FFF73EFE4FF41A
:10146000806B69465F48CDF800B0FFF7FAFD0C22AB
:101470000A215C48FFF731FE271169465948009759
:10148000FFF7EFFD0C220B215648FFF726FE6946B9
:101490005448CDF80090FFF7E4FD0C221146514866
:1014A000FFF71BFEA010009069464E48FFF7D9FDDC
:1014B0000C220D214B48FFF710FE69464948009564
:1014C000FFF7CFFD0C220E214648FFF706FE6946C6
:1014D00044480094FFF7C5FD0C220F214148FFF757
:1014E000FCFD69463E480096FFF7BBFD0C22082133
:1014F0003B48FFF7F2FD69463948CDF800A0FFF7F9
:10150000B0FD0C2209213648FFF7E7FD6946344853
:10151000CDF800B0FFF7A5FD0C220A213048FFF7F7
:10152000DCFD4020304D009069462846FFF799FDCC
:101530000C2206212846FFF7D0FD0120DFF8AC90F1
:10154000009069464846FFF78CFD0C220021484672
:10155000FFF7C3FD694620480097FFF782FD0C2284
:101560000B211D48FFF7B9FD69461C480094FFF7A1
:1015700078FD0C220F211948FFF7AFFD6946174887
:101580000096FFF76EFD0C2208211448FFF7A5FD19
:1015900069462846CDF80080FFF763FD0C2207213D
:1015A0002846FFF79AFD0220009069460D48FFF794
:1015B00058FD0C2201210B48FFF78FFD0120009000
:1015C00069460848FFF74DFD0C2200210548FFF74A
:1015D00084FDBDE8FC9F000000140240001802409A
:1015E000000C024000100240001C024000080240B3
:1015F00000B593B0FFF73AFE01210846FFF7C8FD9A
:101600000421022007220D91CDE90B02CDE90E2025
:1016100010901190012000900020CDE901011021CF
:101620000391402104918900CDE90510C90007917B
:101630004900CDE908100BA80A906846FFF778FC2E
:1016400000F002F813B000BDF0B585B00126082502
:1016500000240096CDE90154039420210120FFF7D6
:101660003BFC0028F9D16846FFF751FC0A201E48D0
:101670000490401E0490FCD102270097CDE901544C
:10168000039420210120FFF727FC0028F9D16846A8
:10169000FFF73DFC032003948DE8A10020210120E9
:1016A000FFF71AFC0028F9D16846FFF730FC40F23A
:1016B00022200421CDE90260CDE90015202101207E
:1016C000FFF70AFC0028F9D16846FFF720FC40F23A
:1016D0006A50FFF7BDFC20210120FFF7FDFB002829
:1016E000F9D105B0F0BD000040420F00002901888B
:1016F00002D041F0400101E021F04001018070473B
:101700002DE9F04387B001212020FFF735FD0121AD
:101710000805FFF755FDDFF8B4900522072148467C
:10172000FFF7DBFC052208214846FFF7D6FC05221F
:1017300009214846FFF7D1FC02258DF8055080208D
:101740008DF80450002400908DF806408DF8074075
:1017500069464846FFF785FCE8010090694648461F
:10176000FFF77FFC2E02694648460096FFF779FC9A
:1017700040274FF0010800978DF8048069464846DD
:10178000FFF76FFC114818300780ADF808404FF4A0
:101790008270ADF81440ADF80A00ADF80C40ADF819
:1017A000164007200A4CADF81080ADF81800ADF8CF
:1017B0000E50ADF8126002A9204600F00BF801218E
:1017C0002046FFF793FF07B0BDE8F0830014024006
:1017D0000050014030B502884C8802F441530A8819
:1017E000CD8822438C882C4322430C8922434C8988
:1017F00022438C892243CC8922431A430280828B64
:1018000022F400628283098A018230BD1CB5002166
:101810002E4A00910191106840F4803010604FF41E
:10182000A043106800F4003001900098401C009024
:10183000019810B900989842F3D11068800342D5FE
:101840000120019021484030016841F08051016041
:101850001F49086840F4404008601C48083003688D
:101860000360036843F400430360036843F4A05338
:101870000360041F174B2360136843F080731360E9
:1018800013689B01FCD50A6842F480320A604A68FA
:10189000D203FCD50A6842F400320A604A68920317
:1018A000FCD50D4A40F205711160016821F0030179
:1018B0000160016841F0020101600168C1F381012A
:1018C0000229FAD11CBD01911CBD00000038024064
:1018D00000700040195A4007003C024010B501F06A
:1018E000BDF9012803D0BDE8104001F075B910BD65
:1018F000124810B5016841F4700101601048016898
:1019000041F0010101600E4A0021083211600268B5
:101910000C4B1A400260031D0B4A1A60026822F445
:101920008022026006480C300160FFF76FFF034918
:101930004FF000608039086010BD000088ED00E0C5
:1019400000380240FFFFF6FE103000240A4E4FF42C
:1019500080544FF4FA75B71E348008A0FEF708FDD6
:10196000284600F03FFE3C800CA0FEF701FD284613
:1019700000F038FEF0E700001A0C02403E3E3E2028
:10198000546573745F5461736B2052756E6E696E2B
:10199000672C4C4544315F4F4E0D0A003E3E3E20C1
:1019A000546573745F5461736B2052756E6E696E0B
:1019B000672C4C4544315F4F46460D0A000000003D
:1019C00070B50C4D40F22551284600F02AF8002849
:1019D0000FD0094C40F222512088884201D30020C8
:1019E0002080284600F0AAF8044A21885054491C57
:1019F000218070BD0044004040000020B400002061
:101A00000029818902D041F4005101E021F4005104
:101A1000818170470246002012880A4200D00120CE
:101A2000704770B501F01F0501260024C1F3421371
:101A300006FA05F2012B0FD0022B0FD0838A4FEA52
:101A400011210088134206FA01F600EA060001D0CF
:101A500000B10124204670BD8389F0E7038AEEE7D8
:101A600010B5C1F3421301F01F040121A140012B65
:101A700007D0022B07D01430002A026805D00A4391
:101A800004E00C30F8E71030F6E78A43026010BD3E
:101A90007FB50446008A0D46C98820F440500143B2
:101AA0002182A08941F20C618843A9882A891143C7
:101AB0006A8902431143A181A08A20F44071A88958
:101AC0000843A0826846FFF787FB1A48844202D089
:101AD0001948844201D1039800E00298A1890904C1
:101AE00000EBC00101EB0010296801D5490000E0BE
:101AF0008900B0FBF1F06422B0FBF2F109010B099F
:101B00006FF018056B4300EB8300A3891D044FF0B1
:101B1000320306D503EBC000B0FBF2F000F0070083
:101B200005E003EB0010B0FBF2F000F00F000843FB
:101B300020817FBD00100140001401408088C0F367
:101B400008007047C1F3080181807047FEE77047C5
:101B500070B5074D0446C1B22846FFF7F3FF802158
:101B60002846FFF757FF0028F9D0204670BD000037
:101B7000001001401CB54FF44070FFF7F3FA00F07D
:101B800099FB00F039FBFFF733FDFFF7B9FD0E4875
:101B900000F0DEFB00F094FF00F0D8FE0BA0FEF793
:101BA000E7FB094901200839CDE900014202002381
:101BB00014A1184801F026F8012802D04FF0FF3098
:101BC0001CBD00F0B3FDFEE72C000020D5E2CAC723
:101BD000D2BBB8F65BD2B0BBF05D2D53544D33325F
:101BE000C8ABCFB5C1D0BFAAB7A2B0E52D467265CC
:101BF0006552544F53B9CCBCFEBFE2C0FDB3CCA379
:101C0000A10A0A004170705461736B43726561747C
:101C1000650000006D0E00082DE9F041184E0F46DA
:101C20000446F5683068001D00F0D4FA38B9306811
:101C300090F82C1001208840316981433161601C8B
:101C400007D137B13168BDE8F0410E48091D00F0F9
:101C500073BB30682C44AC424460316805D2B06B31
:101C6000BDE8F041091D00F04FBB706B091D00F08D
:101C70004BFBB06A844200D2B462BDE8F081000040
:101C800054000020A80900202DE9F041054600F08D
:101C9000DDFB2D4EB068401CB06030682B4F10B19A
:101CA000706930B32BE03560B068012827D100247B
:101CB00004EB840007EB800000F018FB641C202C70
:101CC000F6D3234800F012FB2148143000F00EFB3D
:101CD0001F48283000F00AFB1D483C3000F006FB8E
:101CE0001B48503000F002FB194870631430B06399
:101CF00005E03068E96AC06A884200D83560706AD9
:101D00000121401C7062E86A3269814011433161EF
:101D100000EB800007EB8000291D00F00DFB00F0B8
:101D2000D1FB706900280CD03068E96AC06A88422B
:101D300007D208494FF080500860BFF34F8FBFF3C0
:101D40006F8FBDE8F081000054000020D80600200D
:101D50005809002004ED00E070B5124E124D1CE051
:101D600000F02EFD306820B1002400F0FDFFA4B982
:101D700001E00124F9E700F069FBF068C468201D68
:101D800000F028FAA868401EA8606868401E6860D5
:101D900000F098FB204600F009F868680028DFD1C1
:101DA00070BD0000940900205400002010B50446C6
:101DB000006B00F0B9FB2046BDE8104000F0B4BB5A
:101DC000074E4FF08054074DFFF7C6FF30680128DB
:101DD000FAD92C60BFF34F8FBFF36F8FF4E7000089
:101DE000D806002004ED00E02DE9F047DDE9098484
:101DF0000E4682466FF00301206B01EB820108441E
:101E0000089D20F007079946780705D040F22B324D
:101E100019A120A0FEF7ACFA00202218315C82F84C
:101E20003410315C11B1401C1028F6D3002684F820
:101E30004360202D00D31F25E562C4E91156201D03
:101E400000F05FFA04F1180000F05BFA2461C5F1BC
:101E500020006462A061E66484F850604A465146FE
:101E6000384600F08FF92060B8F1000F01D0C8F8B3
:101E70000040BDE8F08700002E2E5C2E2E5C4672DE
:101E8000656552544F535C7372635C7461736B731A
:101E90002E6300004572726F723A25732C25640D13
:101EA0000A00000030B5114900E011460A6882427C
:101EB000FBD34B685C18844203D1406818444860E7
:101EC000084643681C18944209D1084C103C246809
:101ED000A24209D052681A4442600A68126802603D
:101EE000814200D0086030BD0460F9E7AC000020FA
:101EF0000648416B096829B1416BC968C9684968DE
:101F0000816270474FF0FF31FAE700005400002073
:101F100008484068401C05D040F20F1206A111A0ED
:101F2000FEF726FA502080F31188BFF34F8FBFF3DE
:101F30006F8FFEE7900000202E2E5C2E2E5C4672E6
:101F4000656552544F535C706F72745C52564453C3
:101F50005C41524D5F434D34465C706F72742E632A
:101F6000000000004572726F723A25732C25640DD3
:101F70000A0000002DE9F04140F2225000F096F8EE
:101F80000446102000F092F82D4F002605467E6092
:101F900000F0BEFC432000F0C9FC4FF4702000F0BC
:101FA00069F84FF0FF3808B126A005E0204600F0A0
:101FB000FFF8852803D026A0FEF7DAF905E0A1781E
:101FC000607881F0FF01884208D0204600F0ACFA2A
:101FD000284600F0A9FA4046BDE8F081E07868B3F1
:101FE00000201F4AE41C03E01154401C80B2641C12
:101FF000217809B1FF28F7D91654002002E02954AE
:10200000401C80B214F8011F202901D01028F6D3FB
:102010000B4A2E54121D13A12846FEF77BFA12A07C
:102020007968FEF7A5F900F073FC06203E6000F029
:102030007DFC432000F07AFC0020CDE70620F9E784
:10204000440000206E6F2064617461310D0A00004D
:102050006572726F722066697273740D0A000000F7
:10206000D60500202564000073697A652025640D7B
:102070000A0000002DE9F041044600F0A5F80646EC
:1020800035464FF4702705E000F09EF8A84201D0D5
:102090003C460546641EF7D2864200D110B10020AE
:1020A000BDE8F0814FF0FF30FAE700002DE9F04184
:1020B000254F05460026386820B9B52223A12DA05A
:1020C000FEF756F900F07CFBF868054236D1ADB357
:1020D0000835680704D005F00700C0F10800054482
:1020E00065B37868854229D81749103108460468D5
:1020F00001E0214604466068A84202D22068002818
:10210000F7D13868844219D00E682068086060688A
:102110000836411B102904D9601941606560FFF73A
:10212000C1FE61687868401A7860BA68904200D24F
:10213000B860F86801430020C4E9000100F014FE13
:102140003046BDE8F08100009C0000202E2E5C2E61
:102150002E5C4672656552544F535C706F72745CAE
:102160004D656D4D616E675C686561705F352E63AE
:10217000000000004572726F723A25732C25640DC1
:102180000A00000010B5031F4FF080741C601B1F75
:1021900021F001011960191F044B0B6014390A600A
:1021A000091F6FF0020244380A6010BD111F0008B9
:1021B00010B5034C03492288FEF770FA208810BD41
:1021C00040000020B4000020014800887047000053
:1021D00040000020D0E9013201699A60D0E9012372
:1021E0005A604A68824201D182684A6000220261D4
:1021F0000868401E08607047F0B5012187B00846A6
:10220000FEF7BAFF01211020FEF7DAFF02250024B5
:102210008DF8064001268DF807602802234F8DF8BF
:10222000055000908DF8045069463846FEF719FFB6
:10223000680200908DF8045069463846FEF711FF99
:1022400007220A213846FEF748FF072209213846AF
:10225000FEF743FF4FF4E130ADF80C400290ADF8CB
:102260000E40ADF81040ADF814400C20104CADF805
:10227000120002A92046FFF70BFC25208DF818005C
:102280008DF819508DF81A608DF81B6006A8FEF7BE
:1022900037FF012240F225512046FFF7E1FB0121E3
:1022A0002046FFF7ADFB07B0F0BD00000000024084
:1022B000001001401CB501210820FEF75DFF012040
:1022C0008DF8040000218DF806108DF807004FF4FA
:1022D00080548DF80510009469460348FEF7C1FE4E
:1022E0000148183004801CBD000C024000F10801B8
:1022F0004FF0FF32C0E90112C160016100210160AD
:10230000704700210161704730B50C68621C02D033
:1023100000F1080202E0026904E01A4653681D68F1
:10232000A542FAD953684B6099608A605160086190
:102330000168491C016030BD42684A6093688B6047
:1023400093685960916008610168491C0160704799
:102350002DE9F0472E4C814600262068354628B1ED
:1023600040F2BD122BA135A0FEF702F848464FF00F
:10237000000AA04638E004682046610704D0C41D66
:1023800024F00704201A3F1A1DB1D8F8000028B124
:102390000AE01F481030C0E9004A0FE04FF4EF7226
:1023A0001CA126A0FDF7E4FFD8F800108C4205D848
:1023B00040F2E11217A121A0FDF7DAFFE019083879
:1023C00020F00700D8F80010C8F80000C0F804A0FA
:1023D000021BC0F800A0C4E9000201B10C606068F3
:1023E0006D1C064409EBC5004768002FC3D1C8F82F
:1023F00008604446C8F804602EB940F20A2205A1DC
:102400000EA0FDF7B5FF4FF00040E060BDE8F0879B
:102410009C0000202E2E5C2E2E5C46726565525468
:102420004F535C706F72745C4D656D4D616E675C8F
:10243000686561705F352E63000000004572726F41
:10244000723A25732C25640D0A000000502080F399
:102450001188BFF34F8FBFF36F8F09494868401C45
:10246000486001280AD10748006810F0FF0F05D026
:1024700040F2B91204A10FA0FDF77ABF7047000027
:102480009000002004ED00E02E2E5C2E2E5C4672A3
:10249000656552544F535C706F72745C525644536E
:1024A0005C41524D5F434D34465C706F72742E63D5
:1024B000000000004572726F723A25732C25640D7E
:1024C0000A00000010B5084C606828B94FF4E072AB
:1024D00006A111A0FDF74CFF6068401E606001D1AD
:1024E00080F3118810BD0000900000202E2E5C2E7D
:1024F0002E5C4672656552544F535C706F72745C0B
:10250000525644535C41524D5F434D34465C706FAC
:1025100072742E63000000004572726F723A257368
:102520002C25640D0A00000070B500282AD0164D35
:10253000A0F108046068E968084205D140F2491238
:1025400012A11CA0FDF714FF206828B14FF4A5725A
:102550000EA118A0FDF70CFF6068E968084211D0D1
:102560002268002A0ED18843606000F029F9606873
:102570006968084468602046FFF794FCBDE8704035
:1025800000F0F2BB70BD00009C0000202E2E5C2EDF
:102590002E5C4672656552544F535C706F72745C6A
:1025A0004D656D4D616E675C686561705F352E636A
:1025B000000000004572726F723A25732C25640D7D
:1025C0000A00000006484FF47A710068B0FBF1F190
:1025D0004FF0E020491E4161072101617047000072
:1025E0000000002010B5040012D00E49096B29B17B
:1025F00040F2CF420CA113A0FDF7BAFE00F0E0F8C4
:1026000000212046FFF708FB00F0AEFB002807D1B1
:1026100010494FF080500860BFF34F8FBFF36F8FAA
:1026200010BD0000540000202E2E5C2E2E5C467241
:10263000656552544F535C7372635C7461736B7362
:102640002E6300004572726F723A25732C25640D5B
:102650000A00000004ED00E070B50446FFF7F6FE46
:10266000234D04B92C68201DFFF7B4FD58B9E06A6A
:10267000204A00EB800152F8211021B9012181404C
:10268000286988432861A06A18B104F11800FFF78F
:10269000A1FD686A401C68622868844207D1211D38
:1026A0001548FFF749FE6868401C686007E0A868A5
:1026B000401EA8602046FFF779FBFFF719FCFFF7E3
:1026C00001FF6869002812D0286884420FD1286B66
:1026D00028B140F2654209A10FA0FDF749FE124959
:1026E0004FF080500860BFF34F8FBFF36F8F70BD06
:1026F00054000020D8060020940900202E2E5C2EC5
:102700002E5C4672656552544F535C7372635C7401
:1027100061736B732E6300004572726F723A25739A
:102720002C25640D0A00000004ED00E01CB51548DE
:102730000024CDE900402346802213A1144800F074
:1027400061FA01280AD0401C1BD102B040F2847209
:10275000BDE810400FA116A0FDF70ABE502080F37F
:102760001188BFF34F8FBFF36F8F06484FF0FF31D3
:102770002C38816201214161C460BDE81C4000F039
:10278000A1B91CBD8000002049444C450000000058
:10279000C11D00082E2E5C2E2E5C467265655254BB
:1027A0004F535C7372635C7461736B732E630000D0
:1027B0004572726F723A25732C25640D0A00000071
:1027C0000248016B491C016370470000540000205F
:1027D00070B5134D286B10B10120E86170BD002069
:1027E000E86128690F4EB0FA80F0C0F11F0000EBDD
:1027F000800456F8240028B940F6F6220AA111A058
:10280000FDF7B6FD06EB840000F108024168496857
:102810004160914201D149684160C868286070BD3B
:1028200054000020D80600202E2E5C2E2E5C46720E
:10283000656552544F535C7372635C7461736B7360
:102840002E6300004572726F723A25732C25640D59
:102850000A000000F0B5012187B00846FEF78CFCA5
:1028600001214804FEF7A0FC00248DF80640012653
:102870008DF8076002250420234F8DF80550009045
:102880008DF8045069463846FEF7EBFB08200090AF
:102890008DF8045069463846FEF7E3FB0722032112
:1028A0003846FEF71AFC072202213846FEF715FCCF
:1028B0004FF4E1300290ADF810400C20134FADF80A
:1028C0000C40ADF81200ADF80E40ADF8144002A96E
:1028D0003846FFF7DDF826208DF818008DF81950DE
:1028E0008DF81A408DF81B6006A8FEF709FC01223E
:1028F00040F225513846FFF7B3F801213846FFF77B
:102900007FF807B0F0BD0000000002400044004026
:1029100010B5044C04482188FDF705FF00202080F5
:1029200010BD000040000020B400002010B5064C8F
:1029300001462046FFF706F980212046FFF76AF896
:102940000028F9D010BD0000004400402DE9F047F8
:1029500040F22250FFF7AAFB04461020FFF7A6FB27
:1029600006460025FFF706FB002814D1FFF7D0FF2D
:102970004320FFF7DBFF4FF470294846FFF77AFB4F
:1029800008B143A005E02046FFF712FC852803D0DC
:1029900042A0FDF7EDFC72E0A178607881F0FF01C4
:1029A00088426CD1E078414FF0B30020E11CDFF8A1
:1029B00000C104E00CF80020401C80B2491C0A78D9
:1029C0000AB1FF28F6D900230CF80030184602E0BF
:1029D0003254401C80B211F8012F202A01D0102857
:1029E000F6D3324A335498460C3232A13046FDF7C2
:1029F00091FDFFF78DFF0620C7F80880FFF796FFCF
:102A00004320FFF793FF35E02046FFF7D1FBFFF7A8
:102A10007FFF217828A0FDF7ABFC2078012806D0A5
:102A2000022804D0042800E002E023D11BE00DB10D
:102A30000620E6E7A278617882F0FF0291421ED17B
:102A4000012804D04FF480630020FA6808E0802356
:102A5000FAE7B9689142EBD8491C401C80B2B960D2
:102A60009842F6D3E4E70620FFF760FF4320FFF724
:102A70005DFF01254846FFF7FDFA0028C4D0204637
:102A8000FFF752FD3046BDE8F047FFF74DBD0000AF
:102A90006E6F2064617461310D0A00006572726F9F
:102AA000722066697273740D0A00000044000020F1
:102AB000D60500202564000025780D0A00000000DE
:102AC000FFF7C8BE1CB5304C20683049884205D19C
:102AD00040F259122EA139A0FDF74AFC20682B497B
:102AE000491E884205D14FF4AD7229A133A0FDF7EC
:102AF0003FFC364C20780190FF20207020788DF824
:102B000000009DF800009DF8001000F0F0008842E1
:102B100005D040F273121EA128A0FDF729FC9DF8F4
:102B200000002B4A00F0500010700720906007E072
:102B30009068401E90609DF8000040008DF80000F5
:102B40009DF800000006F3D4107A000200F4E06063
:102B50009060019820700C482030016841F47001A9
:102B60000160016841F070410160FFF72BFD00201A
:102B70005060FDF79FFB1748016841F0404101603C
:102B8000FDF788FB00201CBD00ED00E071C20F4185
:102B90002E2E5C2E2E5C4672656552544F535C702F
:102BA0006F72745C525644535C41524D5F434D34D6
:102BB000465C706F72742E63000000004572726F85
:102BC000723A25732C25640D0A00000000E400E031
:102BD0009000002034EF00E010B5502080F3118801
:102BE000BFF34F8FBFF36F8F00F046F818B1044961
:102BF0004FF080500860002080F3118810BD000065
:102C000004ED00E02DE9FF5F8346DDE90E8799467C
:102C100016468A469000FFF749FA05001AD054205C
:102C2000FFF744FA040012D025630021CDE90241E8
:102C3000CDE900874B46324651465846FFF7D4F857
:102C40002046FFF721F8012004B0BDE8F09F284698
:102C5000FFF76AFC4FF0FF30F6E7000005484169D6
:102C600019B1006B18B10020704701207047022095
:102C700070470000540000202DE9F0412D4F002640
:102C8000386B40B1B869401CB861F86900B10126E1
:102C90003046BDE8F081FD686D1CFD6011D1786B98
:102CA000006828B140F6D91223A12AA0FDF760FBE5
:102CB000786BB96B7963B863386A401C3862FFF788
:102CC00017F9B86ADFF89C80854209D3786B0068F1
:102CD00080B1786BC068C468606885420DD2B86204
:102CE0003868C06A00EB800158F821000128CCD96F
:102CF0000126CAE74FF0FF30F1E7201DFFF76AFA1F
:102D0000A06A18B104F11800FFF764FAE06A012123
:102D10003A6981401143396100EB800108EB810081
:102D2000211DFFF709FBE06A3968C96A8842CDD3E3
:102D30000126CBE7540000202E2E5C2E2E5C46721E
:102D4000656552544F535C7372635C7461736B734B
:102D50002E6300004572726F723A25732C25640D44
:102D60000A000000D80600202DE9F0472B4D002472
:102D70002746286B28B94FF4FD6229A12FA0FDF743
:102D8000F7FAFFF763FB286B401E2863286BE8BB4C
:102D9000A8682E490126C8B3A1F52A798846D8F833
:102DA0000010E9B1D8F80C00C46804F11800FFF76E
:102DB00011FA201DFFF70EFAE06A2A6906FA00F1FF
:102DC0001143296100EB800109EB8100211DFFF710
:102DD000B3FAE06A2968C96A8842E0D3EE61DEE7A7
:102DE0000CB1FFF785F8AC693CB1FFF745FF00B1C6
:102DF000EE61641EF9D10020A861E86930B1144980
:102E0000012738070860BFF34F8F00E001E0BFF3F0
:102E10006F8FFFF757FB3846BDE8F087540000205E
:102E20002E2E5C2E2E5C4672656552544F535C7399
:102E300072635C7461736B732E6300004572726F12
:102E4000723A25732C25640D0A00000080090020C9
:102E500004ED00E010B500290AD00878002807D05A
:102E600005487844FDF7C2FF002801D0002010BDBE
:102E70000248784410BD0000720000006A000000A3
:102E80004FF04070E1EE100A704730313233343584
:102E90003637383941424344454640305800303196
:102EA00032333435363738396162636465664030B1
:102EB00078000000E42F000800000020B4000000AB
:102EC000E801000898300008B40000206C0F0000F2
:102ED000040200081001000043000000F8FFFFFF9B
:102EE000004040404040404040404141414141401D
:102EF00040404040404040404040404040404040D2
:102F00004005020202020202020202020202020260
:102F10000220202020202020202020020202020265
:102F200002029090909090901010101010101010BD
:102F300010101010101010101010101002020202C9
:102F4000020288888888888808080808080808080D
:102F50000808080808080808080808080202020209
:102F60004000000000000000000000000000000021
:102F70000000000000000000000000000000000051
:102F80000000000000000000000000000000000041
:102F90000000000000000000000000000000000031
:102FA0000000000000000000000000000000000021
:102FB0000000000000000000000000000000000011
:102FC0000000000000000000000000000000000001
:102FD00000000000000000000000000000000000F1
:102FE000000000000095BA0A000000000000000088
:102FF000010203040607080900000000010203049F
:103000000102030406070809000000000000000098
:10301000000000D0000040000000000000000000A0
:1030200000000000000000000000000000000000A0
:103030000000000000000000000000000000000090
:103040000000000000000000000000000000000080
:103050000000000000000000000000000000000070
:103060000000000000000000000000000000000060
:103070000000000000000000AAAAAAAA00000000A8
:103080000000000000000000000000000000000040
:08309000000000000000000038
:04000005080001AD41
:00000001FF
