:020000040800F2
:10000000D82A002055020008A9130008A1130008EF
:10001000A5130008990D0008CF200008000000007B
:10002000000000000000000000000000BD1C0008EF
:100030009D0D00080000000025140008E11D0008C7
:100040006F0200086F0200086F0200086F020008CC
:100050006F0200086F0200086F0200086F020008BC
:100060006F0200086F0200086F0200086F020008AC
:100070006F0200086F0200086F0200086F0200089C
:100080006F0200086F0200086F0200086F0200088C
:100090006F0200086F0200086F0200086F0200087C
:1000A0006F0200086F0200086F0200086F0200086C
:1000B0006F0200086F0200086F0200086F0200085C
:1000C0006F0200086F0200086F0200086F0200084C
:1000D0006F0200086F020008D11E00086F020008BE
:1000E0006F0200086F0200086F0200086F0200082C
:1000F0006F0200086F0200086F0200086F0200081C
:100100006F0200086F0200086F0200086F0200080B
:100110006F0200086F0200086F0200086F020008FB
:100120006F0200086F0200086F0200086F020008EB
:100130006F0200086F0200086F0200086F020008DB
:100140006F0200086F0200086F0200086F020008CB
:100150006F0200086F0200086F0200086F020008BB
:100160006F0200086F0200086F0200086F020008AB
:100170006F0200086F0200086F0200086F0200089B
:100180006F0200086F0200086F0200086F0200088B
:100190006F0200086F0200086F0200086F0200087B
:1001A0006F0200086F0200086F02000800F002F8FA
:1001B00000F041F80AA090E8000C82448344AAF1C0
:1001C0000107DA4501D100F036F8AFF2090EBAE8BE
:1001D0000F0013F0010F18BFFB1A43F0010318477B
:1001E000542B0000642B0000103A24BF78C878C15B
:1001F000FAD8520724BF30C830C144BF04680C602D
:100200007047642900F0B280782900F0EB807329F0
:1002100000F0D582002070471FB502F071FC00F09D
:1002200077FD04000020002102F054FC401C6060B7
:100230001FBD10B510BD00F02FFD1146FFF7ECFFFC
:1002400002F004F800F056FD03B4FFF7F2FF03BC20
:1002500001F03FFF0948804709480047FEE7FEE7F5
:10026000FEE7FEE7FEE7FEE7FEE7FEE7FEE7FEE766
:1002700004480549054A064B70470000511E000816
:10028000AD010008D8060020D82A0020D82600207A
:10029000D8260020704700000FB4044910B503AA07
:1002A000029800F091FA10BC5DF814FB1C000020CD
:1002B0002DE9F0410E460446002020622046E16808
:1002C000884730B3252805D0D4E901219047206A1A
:1002D000401CF2E7E168204600278847050018D057
:1002E000A5F14100192802D820354FF400673246A5
:1002F000294620462760FFF784FF40B1012804D03B
:10030000F61D26F007060836D8E7361DD6E728463C
:10031000DAE7206ABDE8F08170B50C460546012A8F
:1003200005D02878800600D5EA69002302E0012381
:1003300005E05B1C934202D2E05C0028F9D1A86979
:10034000E618C01AA861286A184428622846AFF344
:10035000008004E0D5E9012114F8010B9047B44274
:10036000F8D32846AFF3008070BD00002DE9F041BE
:100370000646002410687529314616A510D0AFF343
:100380000080002802DA404213A507E031688A079E
:1003900001D512A502E0490704D511A5012401E009
:1003A000AFF3008000210A2206F1240709E0B0FB28
:1003B000F2FCB0FBF2F302FB1C003030785418461C
:1003C000491C0028F3D123462A463046BDE8F041B7
:1003D00000F08AB9000000002D0000002B00000092
:1003E0002000000070B504460D4621461068AFF3AA
:1003F00000802188090502D50F4A7A4402E00E4A9E
:100400007A440E32002104F1240305E000F00F06C7
:100410000009965D5E54491C0028F7D1207800231E
:10042000000704D5702D02D009B1022311322046F5
:10043000BDE8704000F058B90C2900000FB400B5B9
:100440008DB010A9099000910B904FF0FF300A90E9
:1004500000200C90064878440690064878446A4686
:1004600007900F9909A800F0D5F90DB05DF814FBBD
:10047000DB030000F30300002DE9FF5F1D464FF092
:10048000FF3B91464FF000085F46D5E90146A96958
:1004900001987F1C8847296A824688470028F6D140
:1004A000BAF1FF3F0CD0002E24F4C06419DD6006C1
:1004B00014D5BAF12B0F09D0BAF12D0F0ED103E0EC
:1004C000584604B0BDE8F09F44F48064A9690198DF
:1004D0007F1C8847761E8246002E02DDBAF1300F5F
:1004E00003D0B9F1000F26D032E0A969761E019839
:1004F0007F1C44F400748847002E824605DDBAF163
:10050000780F06D0BAF1580F03D0B9F1000F10D010
:100510001EE0B9F1000F02D0B9F1100F18D1A9698E
:10052000761E01987F1C24F40074884782461020B0
:1005300002E0082000E00A20814609E0A96908FBE2
:100540000908761E01987F1C44F40074884782468F
:10055000002E05DD4946504600F048F90028EDDA46
:10056000E96901988847A00502D46FF00100A8E767
:10057000E00725D1600613D5600502D5C8F100005B
:1005800000E0404629680A1D2A600968220501D555
:10059000087015E0220701D5088011E008600FE01F
:1005A0002868011D29600068210502D580F80080B7
:1005B00006E0210702D5A0F8008001E0C0F8008025
:1005C00038467EE7032A40F2308010F0030C00F03A
:1005D000158011F8013BBCF1020F624498BF11F87D
:1005E00001CB00F8013B38BF11F8013BA2F1040236
:1005F00098BF00F801CB38BF00F8013B11F00303AE
:1006000000F03881083AC0F0088051F8043B083AFD
:1006100051F804CBA0E80810F5E7121D5CBF51F8B3
:10062000043B40F8043BAFF30080D20724BF11F82D
:10063000013B11F801CB48BF11F8012B24BF00F892
:10064000013B00F801CB48BF00F8012B70474FF089
:1006500000020429C0F0128010F0030C00F01B808F
:10066000CCF1040CBCF1020F18BF00F8012BA8BF9D
:1006700020F8022BA1EB0C0100F00DB85FEAC17C61
:1006800024BF00F8012B00F8012B48BF00F8012B14
:1006900070474FF0000200B5134694469646203945
:1006A00022BFA0E80C50A0E80C50B1F12001BFF42B
:1006B000F7AF090728BFA0E80C5048BF0CC05DF891
:1006C00004EB890028BF40F8042B08BF704748BFDF
:1006D00020F8022B11F0804F18BF00F8012B704753
:1006E00070477047704770472DE9F0470D469946AF
:1006F0009246044600F124080168880604D5E069A2
:1007000021F01001216000E00120A84201DD471B1B
:1007100000E00027A1697A1902EB0900081AA0611C
:100720002078C00602D42046AFF30080002608E0FF
:10073000D4E901211AF806009047206A401C761C73
:1007400020624E45F4DB2078C0060AD52046AFF380
:10075000008006E0D4E9012130209047206A401C47
:100760002062381EA7F10107F4DC07E0D4E901217B
:1007700018F805009047206A401C2062281EA5F149
:100780000105F3DC2046AFF300802078000602D597
:100790000220BDE8F0870120FBE710B5436913B1E3
:1007A000AFF3008001E0FFF7B7FD012010BD127824
:1007B00000F124010A7000224A700122EDE711685D
:1007C0004FF0FF32E9E70000074B70B50D467B4460
:1007D00000F091F80446284600F05AFA10B14FF0A4
:1007E000FF3070BD204670BD571A00003A2800D275
:1007F000303820F02002412A01D3A2F1370088428C
:1008000001D34FF0FF307047026811441378016044
:1008100018467047D16005497944516104497944CB
:10082000116200211161114600F078B8EDFFFFFF61
:10083000B7000000426842B1016811F8013B23B1E2
:10084000521EC0E90012184670470121C160881E7F
:10085000704742685AB1C368016843B983688B42E4
:1008600005D0491E521CC0E90012002070474FF00D
:10087000FF30704710B5203AC0F00B80B1E8185037
:10088000203AA0E81850B1E81850A0E81850BFF47A
:10089000F5AF5FEA027C24BFB1E81850A0E8185019
:1008A00044BF18C918C0BDE810405FEA827C24BF6D
:1008B00051F8043B40F8043B08BF7047D20728BFFB
:1008C00031F8023B48BF11F8012B28BF20F8023B4A
:1008D00048BF00F8012B704710B5044600F002FA3B
:1008E0000068005D00F0010010BD000001694A1CB5
:1008F00002610878704700B58FB0CDE90131002161
:10090000059105497944CDE9031011466846FFF782
:10091000CFFC0FB000BD0000E5FFFFFF2DE9F34F56
:100920004FF0000A0C4656468DB001200C9001F1A4
:100930000C000B9062690B9801219047051E2DD089
:10094000252D2CD0216A8847C0B162690B980121FE
:100950009047216A88470028F7D16269411E0B98A9
:10096000904700E0761CA1690D988847216A884766
:100970000028F7D1E1690D988847DBE7A1690D9858
:100980008847A842074601D1761CD3E7E1690D9854
:1009900088477F1C02D1BAF1000F6FD06BE162690A
:1009A0000B9800273D46394690472A2804D16269B2
:1009B0000B98012190470125DFF8D08262690B98DE
:1009C00001219047A0F130010A290AD24745E5DC10
:1009D00007EB870100EB4107303FDFD445F01005FE
:1009E000ECE7E90601D46FF000476C280AD04C28E8
:1009F00014D0682815D06A280DD074281CD07A2805
:100A00001AD01DE062690B98012190476C2802D032
:100A100045F0040514E045F002050DE045F0200521
:100A20000AE062690B9801219047682802D045F0DE
:100A3000080505E045F4006562690B9801219047BF
:100A4000C4E9015765283DD019DC58287AD00CDC60
:100A5000452837D004DC252826D041289ED131E016
:100A600046282FD0472899D12CE05B2877D06128E1
:100A700028D063287CD0642823D15AE0F6E06F2880
:100A800048D008DC66281DD067281BD0692821D0F3
:100A90006E2816D127E0702845D0732868D07528B5
:100AA00047D078280DD14DE0A1690D9888472528B9
:100AB00005463FF469AFE1690D9888476D1C3FF426
:100AC0006AAFD8E00D9923466A466FF00100AFF394
:100AD0000080C5E045F0400023464FF00002606012
:100AE000A80736D43EE0E8077FF447AF2068011D31
:100AF00021600068290501D506701BE7290701D58B
:100B0000068017E7A90703D5F117C0E9006111E7CF
:100B100006600FE745F0400023464FF00802606092
:100B2000A80716D41EE040F60E0125EA0100606019
:100B300016E045F0400023464FF00A026060A80727
:100B400007D40FE045F040006060A80708D52346B1
:100B500010220D996FF00100AFF3008080E007E0F4
:100B6000102223460D996FF00100FFF785FC77E016
:100B70004FF0000963284F46C8464B46CB4602D08B
:100B80005B2806D038E0E80601D40120A0600127E8
:100B900032E06269D4F80CB00B98012190475E28CE
:100BA00007D14FF0010949466269D4F80CB00B989F
:100BB0009047216939B900210A4603AB43F8212047
:100BC000491C0829FADBD8B3216949B308F10108A7
:100BD00062690B98012190475D28F4D1B9F1000FAB
:100BE00009D0002003A951F82020D24341F8202049
:100BF000401C0828F7DB03AB2069002820794FEA66
:100C000040701ED05B462246CDF80080CDE90197AA
:100C10000D9900286FF0010020DAAFF300801FE08B
:100C2000C11703AA00EBD1614B1121F01F0102EBA8
:100C30008302411A13680120884003431360C7E709
:100C400019E00D99224600286FF00100009702DAA2
:100C5000AFF3008004E0AFF3008001E0AFF3008069
:100C600000280ADA401C06D10C9820B14FF0FF3062
:100C70000FB0BDE8F08F5046FAE7E90701D10AF15D
:100C8000010A064400200C9054E60000CCCCCC0CA9
:100C9000007B00F080007047754600F035F8AE46E6
:100CA00005006946534620F00700854618B020B578
:100CB000FFF7DEFABDE820404FF000064FF00007D6
:100CC0004FF000084FF0000B21F00701AC46ACE8F4
:100CD000C009ACE8C009ACE8C009ACE8C0098D4661
:100CE0007047000010B500F013F8001D10BD00BFE4
:100CF000E51D000010B50446AFF300802046BDE8B6
:100D00001040FFF7A1BA00000048704778060020A5
:100D100000487047980600204FF0013C50F8042B23
:100D200051F8043B9A4221D1A2EB0C03934313EAFE
:100D3000CC1317D150F8042B51F8043B9A4215D12B
:100D4000A2EB0C03934313EACC130BD150F8042B02
:100D500051F8043B9A4209D1A2EB0C03934313EAE6
:100D6000CC13DBD04FF00000704700BFD01A01BA9F
:100D7000B1FA81F101F0180122FA01F0CB40C1F182
:100D80002001DBB2C0B2C01A2CFA01F3D11A914390
:100D900011EAC311E6D1704700BFFEE770470000BB
:100DA00001490860704700000C3C024070B50446E1
:100DB0000A460026092502B909E0012A01D11602D6
:100DC00005E0022A01D1160201E04FF4407600F05E
:100DD0009FF80546092D28D11548006820F4407079
:100DE00013490860084600683043086008460068F8
:100DF00020F0F80008600846006844F0020108434B
:100E00000B4908600846006840F48030086000F034
:100E10007FF805460648006820F002000449086093
:100E20000846006820F0F8000860284670BD000001
:100E3000103C024009201349096801F48031B1F5E2
:100E4000803F01D101201CE00E49096801F010012A
:100E500009B1062015E00B49096801F4807109B158
:100E600002200EE00749096801F0E00109B10720FE
:100E700007E00449096801F0020109B1082000E017
:100E8000092070470C3C02400348006840F00040D5
:100E90000149086070470000103C024030B502462E
:100EA0000C46092500F034F80546092D19D10E48E5
:100EB000006820F440700C4908600846006840F45F
:100EC000007008600846006840F001000860146087
:100ED00000F01EF805460448006820F001000249B1
:100EE0000860284630BD0000103C024005480068FC
:100EF00000F0004028B1044802490C39086003485A
:100F000008607047103C024023016745AB89EFCD74
:100F100008B509200090FFF78DFF009002E0FFF771
:100F200089FF00909DF800000128F8D09DF800008E
:100F300008BD000010B5024600200023102A03D18E
:100F40004FF02044636E0FE0B2F5807F02D10A4C6F
:100F5000236809E0B2F5805F03D1074C2034236891
:100F600002E0054CD434236803EA01048C4201D02A
:100F7000002000E0012010BD840000A00021D0E985
:100F800000231A4383685B1E42EA4312C36842EAA5
:100F90004321014A11607047500100A070B5002242
:100FA0000021002300240568AD00A5F1C045D5F857
:100FB00040216FF30E02D0E901563543C668354330
:100FC000066935434669354386693543C669354305
:100FD000066A3543466A35432A43056835B90568CC
:100FE000AD00A5F1C045C5F8402111E03B4D2B688F
:100FF0006FF30E03D0E907563543466A35432B435A
:10100000364D2B600568AD00A5F1C045C5F84021FF
:10101000056875BB314D0835066855F8261001F096
:101020007041856A2D686D1E866A7668761E45EA6F
:101030000616856AAD686D1E46EA0526856AED6866
:101040006D1E46EA0536856A2D8A6D1E46EA0546FE
:10105000856AAD8A6D1E46EA0556856A2D7E6D1E2F
:1010600046EA056529431D4D0835066845F82610F2
:1010700032E0FFE7194D0835066855F8261001F0F3
:101080007041856A2D686D1E866A7668761E45EA0F
:101090000616856AAD686D1E46EA0526856A2D8AA4
:1010A0006D1E46EA054529430C4D08352C6804F0B1
:1010B0007044856AED686D1E2E03856AAD8A6D1ECB
:1010C00046EA05552C434FF02045C5F84841034DED
:1010D0000835066845F8261070BD0000400100A0E4
:1010E0000449096841EA40014FF02042C2F8541116
:1010F00070470000540100A0F0B50A46002100230B
:10110000002400BF3DE0012505FA01F3156805EA5A
:1011100003049C4234D105684F000326BE40B5430A
:10112000056015794E00B5400668354305601579B0
:10113000012D02D01579022D16D185684F000326A6
:10114000BE40B543856055794E00B540866835434D
:101150008560456801268E40B543456045689679AF
:101160008E40B6B235434560C5684F000326BE4089
:10117000B543C560D5794E00B540C6683543C560F6
:10118000491C1029BFD3F0BDF0B5002300244D0742
:10119000ED0E02FA05F3CE1000F1200555F82650A9
:1011A0004E07F70E0F26BE40B543CF1000F12006C4
:1011B00046F82750CE1000F1200555F8265045EA94
:1011C0000304CE1000F1200545F82640F0BD0000D4
:1011D000014600205C4A914203D2B1F1006F00D376
:1011E000B0E05A4A914204D2574A914201D30820B2
:1011F000A8E0574A914204D2544A914201D31020A8
:10120000A0E0544A914204D2514A914201D318209D
:1012100098E0514A914204D24E4A914201D3202093
:1012200090E04E4A914204D24B4A914201D3282089
:1012300088E04B4A914204D2484A914201D330207F
:1012400080E0484A914204D2454A914201D3382075
:1012500078E0454A914204D2424A914201D340206B
:1012600070E0424A914204D23F4A914201D3482061
:1012700068E03F4A914204D23C4A914201D3502057
:1012800060E0B1F1016F04D2394A914201D3582094
:1012900058E0384A914204D2B1F1016F01D3802065
:1012A00050E0354A914204D2324A914201D388201B
:1012B00048E0324A914204D22F4A914201D3902011
:1012C00040E02F4A914204D22C4A914201D3982007
:1012D00038E02C4A914204D2294A914201D3A020FD
:1012E00030E0294A914204D2264A914201D3A820F3
:1012F00028E0264A914204D2234A914201D3B020E9
:1013000020E0234A914204D2204A914201D3B820DE
:1013100018E0204A914204D21D4A914201D3C020D4
:1013200010E01D4A914204D21A4A914201D3C820CA
:1013300008E01A4A914204D2174A914201D3D020C0
:1013400000E0D8207047000000400008008000083E
:1013500000C00008000001080000020800000408A6
:10136000000006080000080800000A0800000C0839
:1013700000000E08004010080080100800C010088F
:1013800000001108000012080000140800001608F0
:101390000000180800001A0800001C0800001E08C1
:1013A00000BFFEE700BFFEE77047000070B50021F8
:1013B00000230F22C4781CB3174C246804F4E064A3
:1013C000C4F5E064C4F30721C1F10404E3B20A41A7
:1013D00044789C40E1B28478144021430C07210EEC
:1013E0000E4C05786155047804F01F050124AC40CB
:1013F00005786D11AD0005F1E025C5F8004109E063
:10140000047804F01F050124AC40054D06787611E0
:1014100045F8264070BD00000CED00E000E400E05F
:1014200080E100E07047000029B1064A12680243DB
:10143000044B1A6004E0034A12688243014B1A60AD
:10144000704700003038024029B1064A1268024352
:10145000044B1A6004E0034A12688243014B1A608D
:10146000704700003838024029B1064A126802432A
:10147000044B1A6004E0034A12688243014B1A606D
:10148000704700004038024029B1064A1268024302
:10149000044B1A6004E0034A12688243014B1A604D
:1014A0007047000044380240F0B5002100220024BB
:1014B000022500260223324F3F6807F00C0121B1BC
:1014C000042905D0082937D105E02E4F076036E002
:1014D0002D4F076033E02A4F3F1F3F68C7F3805608
:1014E000274F3F1F3F6807F03F036EB1264FB7FB02
:1014F000F3F7DFF88CC0ACF1040CDCF800C0CCF3DF
:10150000881C07FB0CF40CE01E4FB7FBF3F7DFF869
:1015100070C0ACF1040CDCF800C0CCF3881C07FBF5
:101520000CF4174F3F1F3F68C7F301477F1C7D0036
:10153000B4FBF5F7076002E0124F076000BF00BF81
:101540000F4F3F6807F0F0010909104F7A5C0768F8
:10155000D74047600A4F3F6807F4E051890A0B4FB4
:101560007A5C4768D7408760054F3F6807F4604161
:10157000490B064F7A5C4768D740C760F0BD000052
:10158000083802400024F40040787D013C0000202F
:101590001CB50121FC20FFF747FF02208DF8040055
:1015A0008DF8050000208DF806008DF80700012059
:1015B00000906946D948FFF79FFD0C220021D748CB
:1015C000FFF7E2FD022000906946D448FFF794FD42
:1015D0000C220121D148FFF7D7FD04200090694675
:1015E000CE48FFF789FD0C220221CC48FFF7CCFD45
:1015F000082000906946C948FFF77EFD0C220321B0
:10160000C648FFF7C1FD102000906946C348FFF7A8
:1016100073FD0C220421C148FFF7B6FD2020009085
:101620006946BE48FFF768FD0C220521BB48FFF75D
:10163000ABFD4FF4805000906946B848FFF75CFD61
:101640000C221146B548FFF79FFD4FF40050009063
:101650006946B248FFF750FD0C220D21AF48FFF755
:1016600093FD4FF4804000906946AC48FFF744FD7D
:101670000C220E21A948FFF787FD4FF4004000908F
:101680006946A648FFF738FD0C220F21A348FFF753
:101690007BFD012000906946A148FFF72DFD0C223B
:1016A00000219F48FFF770FD0220009069469C488A
:1016B000FFF722FD0C2201219948FFF765FD10205C
:1016C000009069469648FFF717FD0C2204219448C4
:1016D000FFF75AFD2020009069469148FFF70CFD66
:1016E0000C2205218E48FFF74FFD4FF480400090FB
:1016F00069468C48FFF700FD0C220E218948FFF750
:1017000043FD4FF40040009069468648FFF7F4FC23
:101710000C220F218348FFF737FD01200090694616
:101720008048FFF7E9FC0C2200217E48FFF72CFDE2
:101730000220009069467B48FFF7DEFC0C22012165
:101740007848FFF721FD8020009069467648FFF732
:10175000D3FC0C2207217448FFF716FD4FF480706C
:10176000009069467048FFF7C7FC0C2208216E48BC
:10177000FFF70AFD4FF40070009069466A48FFF7D2
:10178000BBFC0C2209216848FFF7FEFC4FF4806087
:10179000009069466448FFF7AFFC0C220A216248BA
:1017A000FFF7F2FC4FF40060009069465E48FFF7D7
:1017B000A3FC0C220B215C48FFF7E6FC4FF48050A1
:1017C000009069465848FFF797FC0C22114656488E
:1017D000FFF7DAFC4FF40050009069465248FFF7DB
:1017E0008BFC0C220D215048FFF7CEFC4FF48040BB
:1017F000009069464C48FFF77FFC0C220E214A48B6
:10180000FFF7C2FC4FF40040009069464648FFF7DE
:1018100073FC0C220F214448FFF7B6FC4FF4807094
:10182000009069463F48FFF767FC0C2208213D48BD
:10183000FFF7AAFC4FF40070009069463948FFF7A3
:101840005BFC0C2209213748FFF79EFC4FF48060B7
:10185000009069463348FFF74FFC0C220A213148BB
:10186000FFF792FC4020009069463048FFF744FCA7
:101870000C2206212D48FFF787FC012000906946C5
:101880002B48FFF739FC0C2200212948FFF77CFC8C
:101890004FF40060009069462048FFF72DFC0C22B1
:1018A0000B211E48FFF770FC4FF400400090694682
:1018B0001B48FFF721FC0C220F211948FFF764FC9D
:1018C0004FF48070009069461548FFF715FC0C2214
:1018D00008211348FFF758FC802000906946134800
:1018E000FFF70AFC0C2207211048FFF74DFC0220ED
:1018F000009069460C48FFF7FFFB0C2201210A48C3
:10190000FFF742FC0120009069460748FFF7F4FB0F
:101910000C2200210448FFF737FC1CBD00140240D4
:1019200000180240000C024000100240001C02405F
:101930000008024000B593B0FFF72AFE01210846D7
:10194000FFF782FD022001900720029004200390FF
:10195000072004900220059006900790012008902F
:101960000020099004200A9010200B9040200C9039
:1019700080000D9000200E904FF400600F9040000A
:1019800010900020119001A8129008A8FFF706FB04
:1019900000F002F813B000BD1FB500240120009034
:1019A0000820019000200290039000BF2021012018
:1019B000FFF7C0FA0028F9D16846FFF7DFFA0A20DE
:1019C00000F042F8022000900820019000200290D0
:1019D000039000BF20210120FFF7ACFA0028F9D1C5
:1019E0006846FFF7CBFA0320009008200190022000
:1019F00002900020039000BF20210120FFF79AFAF7
:101A00000028F9D16846FFF7B9FA40F222240420F1
:101A100000900820019001200290039400BF202133
:101A20000120FFF787FA0028F9D16846FFF7A6FAE8
:101A300040F26A50FFF754FB00BF20210120FFF75E
:101A400079FA0028F9D11FBD01B581B000200090BE
:101A5000054901984843009002E00098401E00901C
:101A600000980028F9D10CBDA086010021B10288A0
:101A700042F04002028004E002884FF6BF731A4031
:101A80000280704770B505460C46164640200F4947
:101A90000880032000F08AF8C4F3074000F086F8BD
:101AA000C4F3072000F082F8E0B200F07FF804E011
:101AB000FF2000F07BF828706D1C301EA6F1010697
:101AC000F6D140200149891E088070BD1A140240D9
:101AD00000B587B001212020FFF7A6FC01210805F1
:101AE000FFF7D2FC052207212E48FFF74DFB052208
:101AF00008212C48FFF748FB052209212948FFF758
:101B000043FB8020009002208DF805008DF8040032
:101B100000208DF806008DF8070069462148FFF780
:101B2000EBFA4FF48070009069461E48FFF7E4FA24
:101B30004FF40070009069461A48FFF7DDFA402024
:101B4000009001208DF8040069461648FFF7D4FA8A
:101B500040201449183108800020ADF808004FF4E7
:101B60008270ADF80A000020ADF80C000220ADF83C
:101B70000E000120ADF810004002ADF81200002068
:101B8000ADF81400ADF816000720ADF8180002A952
:101B9000054800F055F801210348FFF767FF07B03B
:101BA00000BD0000001402400050014010B5044682
:101BB0004FF48050194908600AE018490868411E2E
:101BC000164A116020B9002000F058F8C0B210BDCC
:101BD0000221134800F026F80028EED021461048D4
:101BE00000F02CF84FF480500C4908600AE00B49D3
:101BF0000868411E094A116020B9012000F03EF832
:101C0000C0B2E4E70121064800F00CF80028EED04D
:101C1000034800F010F8C0B2D9E70000240000200B
:101C2000005001400246002013890B400BB10120F7
:101C300000E0002070470146888970478181704725
:101C400010B50022028802F441520B884C882343CD
:101C50008C882343CC8823430C8923434C8923431A
:101C60008C892343CC8923431A430280838B4FF210
:101C7000FF74234083830B8A038210BD10B5044692
:101C8000214602A0FEF708FB002010BD3C3C2D467B
:101C90004C4153482D4552524F522D3E3E205350F9
:101CA0004920B5C8B4FDB3ACCAB1216572726F7278
:101CB000436F6465203D2025640A000070470000E2
:101CC0000CB50020019000904148006840F480303D
:101CD0003F49086000BF3E48006800F400300090B3
:101CE0000198401C0190009818B90198B0F5A04FD8
:101CF000F1D13748006800F4003010B101200090A5
:101D000001E0002000900098012860D13048403068
:101D1000006840F080502E49403108602D4800682E
:101D200040F440402B4908602948083000682849A1
:101D3000083108600846006840F400400860084622
:101D4000006840F4A05008602348091F0860081F7D
:101D5000006840F08070091F086000BF1C480068E0
:101D600000F000700028F9D01A48006840F4803074
:101D70001849086000BF1748406800F48030002808
:101D8000F9D01448006840F400301249086000BFE0
:101D90001048406800F400300028F9D040F2057087
:101DA0000E4908600A480830006820F0030008491E
:101DB000083108600846006840F00200086000BF73
:101DC00003480830006800F00C000828F8D10CBD6A
:101DD0000038024000700040195A4007003C0240A1
:101DE00010B500F069F810BD30B5164800684FF422
:101DF0007A72B0FBF2F1481EB0F1807F01D301206E
:101E00001BE0481E4FF0E022506150170F220028BF
:101E100007DA13071D0E0C4B00F00F04241F1D558D
:101E200003E013071C0E094B1C5400BF00204FF0A9
:101E3000E022906107201061002008B100BFFEE79A
:101E400030BD00002800002018ED00E000E400E0B4
:101E500010B51548006840F4700013490860134835
:101E6000006840F001001149086000200F49083166
:101E700008600E4800680E4908400C4908600D488B
:101E8000091D0860081F006820F48020091F0860F1
:101E9000002006490C310860FFF712FF4FF0006088
:101EA00001498039086010BD88ED00E0003802402B
:101EB000FFFFF6FE103000240448006820B10348FC
:101EC0000068401E014908607047000018000020AB
:101ED00010B540F225510D4800F037F8A0B10C487C
:101EE000008840F22251884202DB00200849088025
:101EF000064800F0E3F80749054A12888854044868
:101F00000088401C0249088010BD000000440040C9
:101F1000200000205401002021B1828942F40052A7
:101F2000828104E082894DF6FF731A4082817047F6
:101F300002460020B1F5007F00D100BF13880B409E
:101F40000BB1012000E00020704770B5024600246C
:101F500000230025002040F66A16B14200D100BFE0
:101F6000C1F3421501F01F03012606FA03F3012D08
:101F700002D19689334006E0022D02D1168A334001
:101F800001E0968A33400C12012606FA04F4168802
:101F9000344013B10CB1012000E0002070BDF0B559
:101FA0000346002400260025002040F66A17B942A7
:101FB00000D100BF1846C1F3421401F01F060127EB
:101FC00007FA06F5012C01D10C3004E0022C01D1F6
:101FD000103000E014301AB107682F43076002E0A8
:101FE0000768AF430760F0BD2DE9FF4705460E4681
:101FF0000024A14600BFA046B08900B100BF2C8AD2
:1020000024F44054F08804432C82AC8941F20C60E3
:102010008443B08831890843718908430443AC8103
:10202000AC8A24F44074B0890443AC826846FFF75C
:102030003BFA2048854202D01F48854202D1DDF894
:102040000C9001E0DDF80890A88900F4004040B150
:1020500009EBC90000EB091031684900B0FBF1F74A
:1020600007E009EBC90000EB091031688900B0FBFB
:10207000F1F76420B7FBF0F004012009642101FBB3
:102080001078A88900F4004040B1322000EBC8006D
:10209000B0FBF1F000F00700044308E0322000EB51
:1020A00008106421B0FBF1F000F00F0004432C8114
:1020B000BDE8FF87001001400014014001468888F8
:1020C000C0F308007047C1F308028280704700BF68
:1020D000FEE700BF70472DE9FC5F05460C4617463A
:1020E0004FF0000B0020019080468146002682467A
:1020F0000090FEF7FBFEF320FEF752FE2046FFF7AE
:1021000067F88346E019FFF763F80190D94611E0BC
:1021100002214846FEF74AFE092803D04FF0FF305F
:10212000BDE8FC9FB9F1580F02D109F1280901E07F
:1021300009F1080901988145EAD9A0463FE0E01974
:10214000A0EB080004280ED3A95D701C285C41EAAE
:102150000021B01C285C41EA0041F01C285C41EAE7
:10216000006000901EE000200090824617E000987A
:10217000000A0090E019A0EB0800504504D8009830
:1021800040F07F40009006E006EB0A00285C0099D2
:1021900041EA006000900AF1010000F0FF0ABAF184
:1021A000040FE4DB40460099FEF778FE092803D1CE
:1021B00008F10408361D02E04FF0FF30B0E7E019E7
:1021C0004045BCD8FEF760FE0020A9E72DE9F041AC
:1021D00004460D4616464FF0FF37012C06D0022C60
:1021E0000AD0032C0ED0042C18D111E03146284619
:1021F00000F02EF9074612E03146284600F03EF97D
:1022000007460CE03146284600F050F9074606E044
:102210003146284600F062F9074600E000BF00BFE3
:102220003846BDE8F081000070B504460D46E1B2C5
:102230000548FFF748FF00BF80210348FFF778FEFD
:102240000028F9D0204670BD0010014008B500F00C
:1022500081FA00F02BFB4B484B4902680420FFF742
:10226000B5FF4A4908700846007818B148A0FEF743
:1022700013F815E04FF0006001784CA0FEF70CF861
:1022800040480068C07800903E48006883783D4828
:10229000006842783B480068017846A0FDF7FCFFE3
:1022A0006EE04FF4805047490880192000F0C4FACE
:1022B0004FF480504349891E0880192000F0BCFA71
:1022C00041480088401C80B23F490880C8281ADB7A
:1022D000002008802D480078A8B93CA0FDF7DCFF5D
:1022E0000A2000F0A9FA3D4840683D4908600846C8
:1022F00000683C4908603949086880F3088800BFD5
:1023000038480068804730480088142190FBF1F27B
:1023100001FB1200002833D12B48008890FBF1F01C
:10232000C0F10A04214630A0FDF7B6FF334800F0A3
:1023300057FB3349087008460078002820D131A0A7
:10234000FDF7AAFF2D4935A0FDF7A6FF2B48D0F8D1
:10235000001137A0FDF7A0FF2848B0F8041139A0FC
:10236000FDF79AFF2548B0F8040107498880234803
:10237000D0F80001086003480168034800F028FB1A
:102380008FE700000C000020040000200200002065
:102390003E3E206170702072756E20636865636BCD
:1023A000206572726F722121210D0A0025780D0AB5
:1023B0000000000025782025782025782025780D3C
:1023C0000A0000001A0C0240000000203E3E206A75
:1023D000756D70206170700D0A0000000000040827
:1023E00014000020100000203E3E20776169742018
:1023F000636D642025640D0A000000004C0000207D
:10240000030000203E3E206861766520757064619F
:10241000746120616374696F6E0D0A003E3E206630
:10242000696C655F6E616D653A25730D0A00000089
:102430003E3E2066696C655F73697A653A25640D76
:102440000A0000003E3E206372633A25780D0A00C0
:1024500070B504460D4608220021204600F01AF906
:10246000E0885A2802D04FF0FF3070BD4FF4805101
:102470002846226800F00EF90020F6E770B5044601
:102480000D4608225104204600F004F9E0885A283D
:1024900002D04FF0FF3070BD03492846226800F09B
:1024A000F9F80020F7E700000010100070B50446AE
:1024B0000D4608229104204600F0ECF8E0885A28E6
:1024C00002D04FF0FF3070BD03492846226800F06B
:1024D000E1F80020F7E700000010200070B5044686
:1024E0000D4608220849204600F0DEF8E0885A2808
:1024F00002D04FF0FF3070BD04492846226800F03A
:10250000D3F80020F7E700000000020800000408EC
:102510002DE9F04104460D4616460027324629466D
:102520002046FFF7D8FD07463846BDE8F081000099
:102530002DE9FF410646374F0020C6F8000100F0A4
:10254000D3F8432000F0D4F84FF4801000F07CF86A
:1025500018B1B81704B0BDE8F081384600F091F822
:102560008046B8F1850F4DD17978B87880F0FF00BA
:10257000814202D04FF0FF30ECE7F87800283AD0E3
:102580000025FC1C05E014F8012B2846691C8DB2BF
:102590003254207808B1FF2DF5DD00222846691C51
:1025A0008DB232540025641C06E014F8012B284635
:1025B000691C8DB20DF800202078202801D0102D44
:1025C000F3DB00222846691C8DB20DF8002006F5C9
:1025D000807211A16846FDF731FF10A0D6F80011F6
:1025E000FDF75AFE00F080F8062000F081F8432045
:1025F00000F07EF80CE0062000F07AF80AA0FDF763
:102600004BFE05E00CA0FDF747FE4FF0FF30A1E7C1
:1026100000209FE7000070D02564000073697A6590
:102620002025640D0A0000006572726F72206E61D1
:102630006D650D0A000000006572726F7220666998
:102640007273740D0A0000002DE9F04105462F4613
:1026500000F07AF804462646A04608E000F074F838
:102660000446444502D04FF48017A0467F1E002F39
:10267000F4D1A64203D114B9781EBDE8F081002040
:10268000FBE770B504460025204600F04DF80546EE
:10269000284670BD70B504460D461646324629469A
:1026A0002046FFF7EFF970BD70B504460D4616469B
:1026B00032462946204600F0CCF870BD70B504467D
:1026C0000D4600265A20E08026680822044920464C
:1026D000FFF71EFF324603492846FFF719FF70BD7A
:1026E000000002080000040810B500F053F910BD06
:1026F00010B50446204600F05BF910BD30B5024627
:10270000002000230BE012F8015B85EA2024E4B2EC
:10271000044D35F8144084EA0024A0B25B1C8B42BF
:10272000F1D330BD0A2B000810B5044604480288D6
:1027300004492046FDF746FF0148008810BD00000F
:10274000200000205401002001480088704700004C
:102750002000002010B500F01BF800F087F8FFF70C
:10276000E9F8FFF7B5F900F073F800F0B3F8FFF7F8
:102770003BFB02A0FDF790FD10BD00003E3E204255
:10278000535020696E6974206F6B0D0A00000000C1
:1027900000B587B001210846FEF746FE0121102052
:1027A000FEF772FE00208DF81A0001208DF81B0044
:1027B00002208DF819008DF818000002059005A977
:1027C0001B48FEF799FC02208DF818004002059086
:1027D00005A91748FEF790FC07220A211448FEF7C6
:1027E000D3FC072209211248FEF7CEFC4FF4E1305A
:1027F00001900020ADF80800ADF80A00ADF80C001B
:10280000ADF810000C20ADF80E0001A90948FFF743
:10281000EBFB00F04FF8012240F225510548FFF78D
:10282000BEFB01210348FFF777FB07B000BD0000A6
:10283000000002400010014001B504490098086002
:1028400000BF024800680028FBD108BD1800002026
:1028500070472DE9F04105460C461646274632469C
:1028600039462846FDF7AEFEBDE8F0811CB50121D2
:102870000820FEF7D9FD4FF48050009001208DF81C
:10288000040000208DF8060001208DF807000020CC
:102890008DF8050069460448FEF72EFC4FF4805081
:1028A0000149183108801CBD000C024010B500F031
:1028B0000FF910BD08B525208DF8000002208DF815
:1028C000010001208DF802008DF803006846FEF734
:1028D0006DFD08BD00B587B001210846FEF7A4FDD7
:1028E00001214804FEF7C0FD00208DF81A000120E8
:1028F0008DF81B0002208DF819008DF818000420B7
:10290000059005A92148FEF7F7FB02208DF8180075
:102910000820059005A91D48FEF7EEFB07220321BC
:102920001A48FEF731FC072202211848FEF72CFC5A
:102930004FF4E13001900020ADF80800ADF80A0036
:10294000ADF80C00ADF810000C20ADF80E0001A998
:102950000F48FFF749FB26208DF8000002208DF874
:10296000010000208DF8020001208DF80300684668
:10297000FEF71CFD012240F225510548FFF70FFB31
:1029800001210348FFF7C8FA07B000BD000002406C
:102990000044004010B5044801880448FDF757FE84
:1029A00000200149088010BD2000002054010020B3
:1029B00010B5044621460548FFF785FB00BF80217E
:1029C0000248FFF7B5FA0028F9D010BD00440040D6
:1029D00070B504460D4629462046FFF76FFE70BDD0
:1029E0002DE9F043ADF2245D044640F224516846DF
:1029F000FDF74FFE002700262046FFF799FD20B186
:102A0000701E0DF2245DBDE8F083002655E0684697
:102A1000FFF737FE8146FFF767FE9DF800000128AB
:102A200004D0022803D0042845D130E000BF27B1EC
:102A300000270620FFF75CFE3EE09DF801109DF8A0
:102A4000020080F0FF00814202D04FF0FF30D8E753
:102A50009DF80000012801D1802001E04FF4806042
:102A6000804600250CE0D4F80001B04200D209E015
:102A7000E81C1DF8000015497054761C681C85B2CE
:102A80004545F0DB00BF0620FFF732FE14E027B912
:102A900001271520FFF72CFE0CE00620FFF728FE8B
:102AA0004320FFF725FE0948D4F80011FFF726FE62
:102AB000A4F8040100E000BF00BF4FF48010FFF74E
:102AC000C3FD0028A3D000209BE70000000070D0C9
:102AD0007047000010B500290AD00878002807D0F8
:102AE00005487844FEF718F9002801D0002010BDF1
:102AF0000248784410BD0000620200005A02000043
:102B00004FF04070E1EE100A7047000021104220A3
:102B100063308440A550C660E770088129914AA1BE
:102B20006BB18CC1ADD1CEE1EFF131121002733235
:102B30005222B5529442F772D662399318837BB30E
:102B40005AA3BDD39CC3FFF3DEE3622443342004C5
:102B50000114E664C774A44485546AA54BB528855E
:102B60000995EEE5CFF5ACC58DD553367226111615
:102B70003006D776F6669556B4465BB77AA71997AE
:102B80003887DFF7FEE79DD7BCC7C448E55886689D
:102B9000A7784008611802282338CCC9EDD98EE9FE
:102BA000AFF9488969990AA92BB9F55AD44AB77A75
:102BB000966A711A500A333A122AFDDBDCCBBFFB4E
:102BC0009EEB799B588B3BBB1AABA66C877CE44C85
:102BD000C55C222C033C600C411CAEED8FFDECCD9E
:102BE000CDDD2AAD0BBD688D499D977EB66ED55E55
:102BF000F44E133E322E511E700E9FFFBEEFDDDFEE
:102C0000FCCF1BBF3AAF599F788F8891A981CAB179
:102C1000EBA10CD12DC14EF16FE18010A100C230AB
:102C2000E3200450254046706760B9839893FBA366
:102C3000DAB33DC31CD37FE35EF3B1029012F322FB
:102C4000D2323542145277625672EAB5CBA5A895B6
:102C500089856EF54FE52CD50DC5E234C324A0144B
:102C600081046674476424540544DBA7FAB7998746
:102C7000B8975FE77EF71DC73CD7D326F23691069B
:102C8000B01657667676154634564CD96DC90EF98E
:102C90002FE9C899E9898AB9ABA9445865480678EB
:102CA0002768C018E1088238A3287DCB5CDB3FEBA6
:102CB0001EFBF98BD89BBBAB9ABB754A545A376A3B
:102CC000167AF10AD01AB32A923A2EFD0FED6CDD76
:102CD0004DCDAABD8BADE89DC98D267C076C645C8B
:102CE000454CA23C832CE01CC10C1FEF3EFF5DCF86
:102CF0007CDF9BAFBABFD98FF89F176E367E554EDB
:102D0000745E932EB23ED10EF01E30313233343524
:102D10003637383941424344454640305800303117
:102D20003233343536373839616263646566403032
:102D300078000000542E0008000000204C00000025
:102D4000E80100081001000043000000F8FFFFFF49
:102D500000404040404040404040414141414140AE
:102D60004040404040404040404040404040404063
:102D700040050202020202020202020202020202F2
:102D800002202020202020202020200202020202F7
:102D9000020290909090909010101010101010104F
:102DA000101010101010101010101010020202025B
:102DB000020288888888888808080808080808089F
:102DC000080808080808080808080808020202029B
:102DD00040000000000000000000000000000000B3
:102DE00000000000000000000000000000000000E3
:102DF00000000000000000000000000000000000D3
:102E000000000000000000000000000000000000C2
:102E100000000000000000000000000000000000B2
:102E200000000000000000000000000000000000A2
:102E30000000000000000000000000000000000092
:102E40000000000000000000000000000000000082
:102E50000000000000000000000000000000000072
:102E6000000070D000000000000000000000000022
:102E7000000000000000000000A000000095BA0A59
:102E8000000000000000000001020304060708091A
:102E90000000000001020304010203040607080900
:04000005080001AD41
:00000001FF
